:020000040800F2
:10000000904B0020112000086104000863040008E0
:10001000670400086B0400086F040008000000007B
:100020000000000000000000000000007304000851
:100030007504000800000000770400087904000837
:100040002B2000082B2000082B2000082B20000864
:100050002B2000082B2000082B2000082B20000854
:100060002B2000082B2000082B2000082B20000844
:100070002B2000082B2000082B2000082B20000834
:100080002B2000082B2000082B2000082B20000824
:100090002B2000082B2000082B2000082B20000814
:1000A0002B2000082B2000082B2000082B20000804
:1000B0002B2000082B200008E10900082B20000855
:1000C0002B2000082B2000082B2000082B200008E4
:1000D0002B200008D11F0008951700082B200008CE
:1000E0002B2000082B2000082B2000082B200008C4
:1000F0002B2000082B2000082B2000082B200008B4
:100100002B2000082B2000082B2000082B200008A3
:100110002B2000082B2000082B2000082B20000893
:100120002B2000082B2000082B2000082B20000883
:1001300000F002F800F03FF80AA090E8000C8244BA
:100140008344AAF10107DA4501D100F034F8AFF297
:10015000090EBAE80F0013F0010F18BFFB1A43F0A5
:10016000010318477885000098850000103A24BFE5
:1001700078C878C1FAD8520724BF30C830C144BF0C
:1001800004680C607047000000230024002500264E
:10019000103A28BF78C1FBD8520728BF30C148BFEA
:1001A0000B607047642903F0A187002070471FB5DA
:1001B0001FBD10B510BD04F04EF81146FFF7F7FF54
:1001C00000F008F804F06CF803B4FFF7F2FF03BC8A
:1001D00004F074F84FF4A06002F0BEFC00F03FFFA2
:1001E0004FF4E13001F0A8FE01F033FA01F03AFEDD
:1001F00000F048FA41F61F41C72000F00DFC41F61F
:100200001F41C72000F04DFC052000F0B1FE7348EF
:1002100001F0DDF94FF6FF71002001F0DEF97048C2
:100220000388704802880021084600F073FFD4E07C
:1002300000F069FA6C490860642001F050FE00F09B
:10024000BDFA6A490860642001F049FE00F010FB25
:1002500067490860642001F042FE00F065FB6549D3
:100260000860642001F03BFE63495F48006804F0C9
:100270005FFB14D24FF4FA7001F031FE5E495A4828
:10028000006804F055FB19D201F0A4F9C08800EB16
:10029000400084B259A1204601F00FF90EE05C49FC
:1002A0005148006804F0C3FB08D201F093F9C088FC
:1002B00000EB400084B2204601F0A1F94E494B48C2
:1002C000006804F035FB14D24FF4FA7001F007FE19
:1002D00049494648006804F02BFB23D201F07AF923
:1002E000C08800EB800084B24AA1204601F0E5F806
:1002F00018E047493D48006804F099FB12D201F02C
:1003000069F9C08800EB800084B2204601F077F9DB
:1003100001F060F9C08800EB40004004040C204666
:1003200001F06DF934493248006804F001FB14D241
:100330004FF4FA7001F0D3FD2F492D48006804F006
:10034000F7FA19D201F046F9C088C0EBC00084B2B8
:1003500037A1204601F0B1F80EE02D49244800688D
:1003600004F065FB08D201F035F9C088C0EBC0008D
:1003700084B2204601F043F91F491E48006804F08A
:10038000D7FA13D24FF4FA7001F0A9FD1A491948AF
:10039000006804F0CDFA20D201F01CF9C088C00436
:1003A000040C28A1204601F088F816E018491148ED
:1003B000006804F03CFB10D201F00CF9C088C004C6
:1003C000040C204601F01BF901F004F9C08800EB91
:1003D000C00084B2204601F012F929E73000002065
:1003E0004200002040000020000000200400002007
:1003F000080000200C00002000002041466F6F64C0
:100400002053637261702069732066756C6C000004
:100410000000704152656379636C61626C6520779E
:10042000617374652069732066756C6C0000000050
:100430004F746865722077617374652069732066F4
:10044000756C6C004861726D66756C2077617374B1
:10045000652069732020202066756C6C0000000008
:10046000704700BFFEE700BFFEE700BFFEE700BF2A
:10047000FEE7704770477047704700000CB50020DA
:10048000019000906C48006840F480306A49086030
:1004900000BF6948006800F4003000900198401CDB
:1004A0000190009818B90198B0F5A06FF1D1624899
:1004B000006800F4003010B10120009001E000203D
:1004C00000900098012843D15C48006840F010007B
:1004D0005A4908600846006820F003000860084692
:1004E000006840F002000860534840685249486084
:1004F0000846406848600846406840F480604860AC
:100500000846406820F47C1048600846406840F483
:10051000E81048600846006840F08070086000BF3E
:100520004548006800F000700028F9D04248406853
:1005300020F00300404948600846406840F002004F
:10054000486000BF3C48406800F00C000828F9D122
:100550000CBD10B5FFF792FF10BD10B5364800680E
:1005600040F00100344908600846406834490840BA
:100570003149486008460068324908402E49086001
:100580000846006820F4802008600846406820F48F
:10059000FE0048604FF41F008860FFF7DAFF4FF05D
:1005A00000602949086010BD10B50021002000221C
:1005B000214B5B6803F00C0121B1042906D0082906
:1005C00028D107E0214B224C236027E01F4B204C11
:1005D000236023E0184B5B6803F47010164B5B68D4
:1005E00003F48032022303EB904022B9194B4343BA
:1005F000174C23600DE0104B5B6803F4003323B10C
:10060000144B4343124C236003E0104B4343104C04
:10061000236003E00D4B0E4C236000BF00BF064B70
:100620005B68C3F303130C4CE15C094B1B68CB40C4
:10063000074C236010BD0000001002400020024063
:100640000000FFF8FFFFF6FE08ED00E000127A0060
:100650001000002000093D001400002008B54FF4F0
:10066000A06002F079FA00208DF801008DF80200F8
:100670001E208DF8000001208DF80300684602F06E
:1006800070FA08BD1FB50121082001F0FDFF01210E
:10069000042002F006F803208DF80E0010208DF8DB
:1006A0000F004FF4AA50ADF80C0003A9D44801F094
:1006B0002FFD04208DF80F004FF42A50ADF80C00E8
:1006C00003A9CF4801F024FDCE4802F0B3FA40F26E
:1006D000E730ADF804004720ADF800000020ADF889
:1006E0000600ADF802006946C64802F077FB012219
:1006F0001146C44802F0E9FEFFF7B0FF0021C148EF
:1007000002F0C8FE1FBD2DE9F05F0024A146A346FC
:1007100048E00120BC490860192001F0BCFB002022
:10072000BA49C1F8A00100BF4FF40071B44801F00C
:1007300082FD0028F8D00121B24802F0ABFE0BF197
:10074000010B00BF4FF40071AD4801F074FD0128AA
:10075000F8D00021AB4802F09DFEAA4803F051F901
:100760008246AB49096801EB4102C2EBC1110AEBB9
:10077000C10003F045FF07460022A64B03F0E8FD49
:10078000054603F0B3FD04464946204603F0A0FFAA
:10079000814600209B49243108809D4908600A2039
:1007A00001F09DFBBBF1010FB3D14FF07E514846E4
:1007B00003F0FCFF04462046BDE8F09F2DE9F05F02
:1007C0000024A146A34647E001208F49083908606C
:1007D000192001F060FB00208C49C1F8980100BF8E
:1007E0008021874801F027FD0028F9D001218548A4
:1007F00002F050FE0BF1010B00BF8021804801F098
:100800001AFD0128F9D000217E4802F043FE7D4800
:1008100003F0F7F882467E49096801EB4102C2EB1A
:10082000C1110AEBC10003F0EBFE07460022794B31
:1008300003F08EFD054603F059FD04464946204667
:1008400003F046FF814600206E492431088070493C
:1008500008600A2001F043FBBBF1010FB4D14FF057
:100860007E51484603F0A2FF04462046BDE8F09FB3
:100870002DE9F05F0024A146A34649E0012062492A
:1008800008310860192001F006FB00205F49C1F81B
:10089000A80100BF4FF40061594801F0CCFC0028CA
:1008A000F8D00121574802F0F5FD0BF1010B00BF14
:1008B0004FF40061524801F0BEFC0128F8D000213D
:1008C000504802F0E7FD4F4803F09BF8824650493C
:1008D000096801EB4102C2EBC1110AEBC10003F050
:1008E0008FFE074600224B4B03F032FD054603F016
:1008F000FDFC04464946204603F0EAFE81460020FE
:10090000404924310880424908600A2001F0E7FA92
:10091000BBF1010FB2D14FF07E51484603F046FFC4
:1009200004462046BDE8F09F2DE9F05F0024A14673
:10093000A34649E00120344910310860192001F034
:10094000AAFA00203149C1F8B00100BF4FF40051AC
:100950002B4801F070FC0028F8D00121294802F052
:1009600099FD0BF1010B00BF4FF40051244801F039
:1009700062FC0128F8D00021224802F08BFD2148BA
:1009800003F03FF882462249096801EB4102C2EBBD
:10099000C1110AEBC10003F033FE074600221D4BD4
:1009A00003F0D6FC054603F0A1FC04464946204668
:1009B00003F08EFE8146002012492431088014493C
:1009C00008600A2001F08BFABBF1010FB2D14FF0A1
:1009D0007E51484603F0EAFE04462046BDE8F09FFB
:1009E00010B50121074803F01EF840B10121054868
:1009F00003F02AF806480068401C0549086010BD4D
:100A0000000C014000080040A081214200802142EA
:100A10002400002000004D4030B589B005460C464A
:100A20000121102001F030FE0121022001F039FEE9
:100A30000121084601F028FE4020ADF820000320E7
:100A40008DF8220018208DF8230008A9374801F0FE
:100A50005FFBADF81850ADF814400020ADF81A0057
:100A6000ADF8160005A9324802F0B8F90121314865
:100A700001F01FFC6020ADF804000120ADF8060075
:100A80000220ADF80C0001A9294802F0E4F9082180
:100A9000274802F02FFE0121254802F0FBFC09B097
:100AA00030BD30B589B005460C460121102001F05B
:100AB000EBFD0121022001F0F4FD0121084601F0C7
:100AC000E3FD8020ADF8200003208DF822001820DF
:100AD0008DF8230008A9154801F01AFBADF818504D
:100AE000ADF814400020ADF81A00ADF8160005A9C5
:100AF0000F4802F073F901210E4801F0DAFB602083
:100B0000ADF804000120ADF806000220ADF80C009D
:100B100001A9074802F0E1F90821054802F0F3FDB8
:100B20000121034802F0B6FC09B030BD00100140BD
:100B300000040040000C1A0001B502E00098401EBD
:100B4000009000980028F9D108BD08B50121602067
:100B500001F09AFD03208DF8020018208DF80300A3
:100B60004FF48040ADF800006946FE4801F0D0FA2D
:100B70004FF40040ADF800006946FA4801F0C8FAA9
:100B80000120ADF800006946F64801F0C1FA0220E4
:100B9000ADF800006946F34801F0BAFA8020ADF8DC
:100BA00000006946F04801F0B3FA4FF48070ADF8E8
:100BB00000006946EC4801F0ABFA4FF40070ADF864
:100BC00000006946E84801F0A3FA4FF48060ADF8F0
:100BD00000006946E44801F09BFA4FF40060ADF86C
:100BE00000006946E04801F093FA4FF48050ADF8F8
:100BF00000006946DC4801F08BFA4FF40050ADF874
:100C000000006946D84801F083FA4FF48040ADF8FF
:100C100000006946D44801F07BFA4FF40040ADF87B
:100C200000006946D04801F073FA4FF48070ADF8C7
:100C300000006946CB4801F06BFA4FF40070ADF844
:100C400000006946C74801F063FA4FF48060ADF8D0
:100C500000006946C34801F05BFA03208DF80200EA
:100C600018208DF803001020ADF800006946BD483B
:100C700001F04EFA2020ADF800006946B94801F0B5
:100C800047FA8020ADF800006946B64801F040FA06
:100C90004FF40060ADF800006946B24801F038FA40
:100CA00010208DF8030003208DF802000220ADF81B
:100CB00000006946AC4801F02BFA10208DF80300C3
:100CC00003208DF802004FF48050ADF80000694613
:100CD000A44801F01DFA08BD00B597B00121080233
:100CE00001F0C5FC012001900420039080060790CC
:100CF000002002900490059006900890099008202A
:100D00000A9010200B9000200C900E900F901090E5
:100D10004FF480501190002012901390149001A86D
:100D20001590169008A802F0DFFE0121002003F0C4
:100D300043F817B000BD10B5CF2003F0CDFA002066
:100D400003F0CEFA812003F0CBFA302003F0C8FA8A
:100D5000ED2003F0C1FA642003F0C2FA032003F08F
:100D6000BFFA122003F0BCFA812003F0B9FAE820A0
:100D700003F0B2FA852003F0B3FA102003F0B0FAC2
:100D8000782003F0ADFACB2003F0A6FA392003F067
:100D9000A7FA2C2003F0A4FA002003F0A1FA3420D3
:100DA00003F09EFA022003F09BFAF72003F094FA76
:100DB000202003F095FAEA2003F08EFA002003F0D9
:100DC0008FFA002003F08CFAB12003F085FA00209E
:100DD00003F086FA1B2003F083FAB62003F07CFAB6
:100DE0000A2003F07DFAA22003F07AFAC02003F073
:100DF00073FA352003F074FAC12003F06DFA112064
:100E000003F06EFAC52003F067FA452003F068FA94
:100E1000452003F065FAC72003F05EFAA22003F034
:100E20005FFAF22003F058FA002003F059FA262066
:100E300003F052FA012003F053FAE02003F04CFAD9
:100E40000F2003F04DFA262003F04AFA242003F085
:100E500047FA0B2003F044FA0E2003F041FA092070
:100E600003F03EFA542003F03BFAA82003F038FACE
:100E7000462003F035FA0C2003F032FA172003F075
:100E80002FFA092003F02CFA0F2003F029FA07208B
:100E900003F026FA002003F023FAE12003F01CFA05
:100EA000002003F01DFA192003F01AFA1B2003F0AA
:100EB00017FA042003F014FA102003F011FA0720A7
:100EC00003F00EFA2A2003F00BFA472003F008FA89
:100ED000392003F005FA032003F002FA062003F09C
:100EE000FFF9062003F0FCF9302003F0F9F938206F
:100EF00003F0F6F90F2003F0F3F9362003F0ECF9D4
:100F0000C82003F0EDF92A2003F0E6F9002003F0F1
:100F1000E7F9002003F0E4F9002003F0E1F9EF2005
:100F200003F0DEF92B2003F0D7F9002003F0D8F905
:100F3000002003F0D5F9012003F0D2F93F2003F09F
:100F4000CFF93A2003F0C8F9552003F0C9F9112070
:100F500003F0C2F90548FFF7EFFD292003F0BCF9C3
:100F600010BD00000014014000180140FCBF020049
:100F700010B50446072C00DD10BDFE480470204665
:100F800004EBD0714910A4EB410139B9F020FA49C2
:100F900008804FF4A070F949088006E04FF4A07073
:100FA000F5490880F020F5490880362003F094F9CF
:100FB000082141EA441003F093F92A2003F08CF948
:100FC000002003F08DF9002003F08AF9EA4909882E
:100FD000491EC1F3072003F083F9E7490978491E48
:100FE000C8B203F07DF92B2003F076F9002003F05E
:100FF00077F9002003F074F9E0490988491EC1F32C
:10100000072003F06DF9DD490978491EC8B203F0E5
:1010100067F92C2003F060F900BFADE710B502219D
:10102000D74801F024F940F6FF20FFF785FD0221A3
:10103000D34801F01AF940F6FF20FFF77DFD10BDFF
:1010400010B504462CB14FF48051CE4801F00FF991
:1010500004E04FF48051CB4801F007F910BD10B502
:10106000FFF773FDFFF738FE0120FFF7E9FFFFF7F9
:10107000D5FFFFF760FEBF480078FFF779FF10BD8E
:101080002DE9F04104460D4616461F462A2003F07E
:1010900023F9201203F024F9E0B203F021F9A11999
:1010A000491EC1F30F2003F01BF9A119491EC8B254
:1010B00003F016F92B2003F00FF9281203F010F9B2
:1010C000E8B203F00DF9E919491EC1F30F2003F04E
:1010D00007F9E919491EC8B203F002F9BDE8F08129
:1010E00070B504460D4601231A4629462046FFF7EF
:1010F000C7FF70BD70B504460D4600262C2003F0D6
:10110000EBF800BF03E0284603F0EAF8761CA6429D
:10111000F9D370BD2DE9F04106460F4614461D4631
:101120002B46224639463046FFF7AAFF04FB05F05E
:1011300095490988FFF7DEFFBDE8F08170B50546E7
:101140000C468D48008885420CDA8C480088844221
:1011500008DA21462846FFF7C3FF8C4801880120A2
:10116000FFF7C8FF70BD70B50024002500262E20B3
:1011700003F0B2F803F0AAF8044603F0A7F8044617
:1011800003F0A4F8064603F0A1F80546E012C002F9
:10119000A91240EA411040EAE62070BD70B504464D
:1011A0000D4629462046FFF79BFFFFF7DCFF06466A
:1011B000304670BD2DE9FF4F83B081464FF0000AE5
:1011C000D3460598A0EB090504990698461ACDF870
:1011D000049004980090002D01DD012705E00DB971
:1011E000002702E04FF0FF376D42002E02DD4FF086
:1011F000010806E016B94FF0000802E04FF0FF3892
:101200007642B54201DD2C4600E0344600200290D3
:1012100019E0DDE90010FFF791FFAA44B344A245AD
:1012200005DDAAEB040A0198384480B20190A34579
:1012300005DDABEB040B0098404480B200900298AF
:10124000401C80B20290611C02988842E1DD07B028
:10125000BDE8F08F2DE9F04104460D4616461F46C5
:10126000DDF81880B8F1000F0CD03B463246294615
:101270002046FFF705FF06FB07F044490988FFF702
:1012800039FF27E0A019401E82B22B46294620468E
:10129000FFF790FFE819401E83B2A019401E82B2EA
:1012A000E819401E81B22046FFF784FFE819401E6E
:1012B00083B2224629462046FFF77CFFE919491EE2
:1012C0008BB2A119491E8AB2A119491E88B22946BA
:1012D000FFF770FFBDE8F0812DE9F05F05460E468F
:1012E00091469B4600240FFA89F70320A0EB4900A2
:1012F0000FFA80FA97E0BBF1000F50D0A0464BE008
:1013000006EB080291B22A1990B2FFF717FF06EB1D
:10131000080291B22A1B90B2FFF710FF321991B266
:10132000A5EB080290B2FFF709FF321B91B2A5EBC3
:10133000080290B2FFF702FFA6EB080291B22A1B47
:1013400090B2FFF7FBFEA6EB080291B22A1990B209
:10135000FFF7F4FE321B91B205EB080290B2FFF7E3
:10136000EDFE321991B205EB080290B2FFF7E6FEEE
:101370000EE0000044000020400000204200002059
:1013800000180140001401404E0000204C000020D5
:1013900008F101000FFA80F8B845B1DD2FE0F2192D
:1013A00091B22A1990B2FFF7C9FEF21991B22A1B25
:1013B00090B2FFF7C3FE321991B2EA1B90B2FFF769
:1013C000BDFE321B91B2EA1B90B2FFF7B7FEF21BD3
:1013D00091B22A1B90B2FFF7B1FEF21B91B22A190B
:1013E00090B2FFF7ABFE321B91B2EA1990B2FFF751
:1013F000A5FE321991B2EA1990B2FFF79FFE601C68
:1014000004B2BAF1000F05DAA000801D50440FFAB3
:1014100080FA07E0E01B80000A3050440FFA80FA9F
:10142000781E07B200BFBC427FF765AFBDE8F09FF2
:101430002DE9F05F804689461646A6F120001FFA86
:1014400080FA754909688988734A1268D28801FB55
:1014500002F0C11700EB5171C1F3C7076E48006875
:1014600000680AFB070B6C480068C3886A4800687C
:10147000828849464046FFF703FE2C2002F02CFFED
:10148000002416E0002510E01BF80400802129410B
:10149000084020B16148008802F022FF03E0604864
:1014A000008802F01DFF681CC5B2082DECDB601C33
:1014B000C4B2BC42E6DBBDE8F09F70B504460D4601
:1014C000002624E030465449096889880844554973
:1014D0000988884205DD00264F480068C0882044FE
:1014E00084B220464C490968C98808444E49098895
:1014F000884201DD002600242A7821463046FFF785
:1015000097FF6D1C444800688088304486B2287874
:101510000028D7D170BD70B505460E46144624E0AC
:1015200028463D490968898808443E490988884217
:1015300005DD002538480068C088304486B2304652
:1015400035490968C988084437490988884201DD56
:1015500000250026227831462846FFF769FF641CE3
:101560002D4800688088284485B220780028D7D18B
:1015700070BD70B505460E46144624E03046264937
:101580000968C988084428490988884205DD002679
:10159000214800688088284485B228461E49096889
:1015A000898808441F490988884201DD00250026F2
:1015B000227831462846FFF73BFF641C1648006836
:1015C000C088304486B220780028D7D170BD124937
:1015D00008607047104800687047104A1080104A31
:1015E000118070470D4A128802800D4A12880A80C5
:1015F00070470A490880704709490880704770B5EC
:101600000446FFF7E7FFC5882B46064802882146B7
:101610000020FFF77FFD70BD480000204C00002037
:101620004E000020400000204200002008B54FF48A
:10163000A06001F091FA26208DF8000001208DF8BD
:1016400001008DF802008DF80300684601F089FA68
:1016500008BD00B585B00121042001F015F8012175
:10166000480401F01EF80420ADF8100018208DF891
:10167000130003208DF8120004A9FE4800F048FD75
:101680000820ADF8100004208DF8130004A9F948D3
:1016900000F03EFD4FF4E13000900020ADF8040072
:1016A000ADF80600ADF80800ADF80C000C20ADF860
:1016B0000A006946F04801F08EF8FFF7B7FF0122F3
:1016C00040F22551EC4801F01EF90121EA4801F0F1
:1016D0000EF905B000BD70B504460D4629462046FA
:1016E00001F072F900BF8021204601F0DBF90028EB
:1016F000F9D070BD70B506460C46002500BF615D8F
:101700003046FFF7E8FF6D1C605D0028F7D100BF91
:101710004021304601F0C6F90028F9D070BD2DE90E
:10172000F04105460C46260AE7B23146284601F04C
:101730004BF900BF8021284601F0B4F90028F9D008
:101740003946284601F040F900BF8021284601F0C3
:10175000A9F90028F9D0BDE8F08170B504460D461E
:10176000E1B2C54801F030F900BF8021C24801F064
:1017700099F90028F9D0204670BD10B5044600BF85
:101780002021BD4801F08EF90028F9D0BA4801F0B7
:101790001FF910BD70B540F22551B74801F098F916
:1017A000002874D0B44801F013F9C4B20E2C6FD2E3
:1017B000DFE804F0073A6FA2D5FEFDFCFBFAF9F86A
:1017C000F7F62146AC4801F0FFF84FF4FA7000F04C
:1017D00086FBB021A94802F0F7F84FF4FA7000F048
:1017E0007EFBB521A54802F0EFF8A5480078401C23
:1017F000A3490870A3480078401CA2490870FFF76D
:10180000E9FE00252846FFF7FAFE9E4803789C482B
:1018100002789DA1A24802F021FCFFF7DBFEA0495F
:101820002846FFF74AFEF7E22146934801F0CCF83C
:101830004FF4FA7000F053FBB021904802F0C4F866
:101840004FF4FA7000F04BFBB5218C4802F0BCF865
:101850008B480078401C8A4908708A480078401CF0
:1018600088490870FFF7B6FE00252846FFF7C7FE37
:10187000844803788248027883A1894802F0EEFB0D
:10188000FFF7A8FE86492846FFF717FEC4E2C4E228
:10189000A6E22146784801F097F84FF4FA7000F07C
:1018A0001EFBAE21754802F08DF84FF4FA7000F07F
:1018B00016FBB121714802F085F871480078401C90
:1018C0006F49087077480078401C76490870FFF728
:1018D00081FE00252846FFF792FE7248037868488B
:1018E000027871A16E4802F0B9FBFFF773FE6C49F4
:1018F0002846FFF7E2FD8FE221465F4801F064F8D9
:101900004FF4FA7000F0EBFABB215C4802F05AF891
:101910004FF4FA7000F0E3FAB121584802F052F89F
:1019200057480078401C5649087064480078401CAD
:1019300062490870FFF74EFE00252846FFF75FFE5C
:101940005E4803784E4802785DA1554802F086FB58
:10195000FFF740FE52492846FFF7AFFD5CE2214603
:10196000454801F031F84FF4FA7000F0B8FABB21A5
:10197000424802F027F84FF4FA7000F0B0FAB121B3
:101980003E4802F01FF83E480078401C3C49087071
:101990004A480078401C49490870FFF71BFE08E0E0
:1019A000EBE1B7E182E14DE118E1E3E0AEE046E0D2
:1019B00012E000252846FFF722FE40480378304811
:1019C00002783FA1364802F049FBFFF703FE344995
:1019D0002846FFF772FD1FE22146274800F0F4FF7A
:1019E0004FF4FA7000F07BFABB21244801F0EAFFC3
:1019F0004FF4FA7000F073FAB121204801F0E2FFD1
:101A00001F480078401C1E4908702C480078401C74
:101A10002A490870FFF7DEFD00252846FFF7EFFD95
:101A2000264803781648027825A11D4802F016FBC7
:101A3000FFF7D0FD1A492846FFF73FFDECE12146AC
:101A40000D4800F0C1FF4FF4FA7000F048FABB21D6
:101A50000A4801F0B7FF4FF4FA7000F040FAB121E4
:101A6000064801F0AFFF06480078401C04490870A2
:101A7000124831E0000801400044004000040040EA
:101A800051000020520000202564205265637963D4
:101A90006C61626C65202564204F4B2100000000C2
:101AA00070000020530000202564204861726D669C
:101AB000756C202564204F4B21000000540000204D
:101AC000256420466F6F6420536372617020256423
:101AD000204F4B21000000000078401CCF490870C7
:101AE000FFF778FD00252846FFF789FDCB480378EE
:101AF000CB480278AFF23801CA4802F0AFFAFFF7DC
:101B000069FDC8492846FFF7D8FC85E12146C6484B
:101B100000F05AFF4FF4FA7000F0E1F9BB21C3481E
:101B200001F050FF4FF4FA7000F0D9F9B121BF482D
:101B300001F048FFBA480078401CB9490870B7481E
:101B40000078401CB5490870FFF744FD0025284681
:101B5000FFF755FDB1480378B1480278AFF2A00114
:101B6000B04802F07BFAFFF735FDAE492846FFF793
:101B7000A4FC51E12146AC4800F026FF4FF4FA7076
:101B800000F0ADF9BB21A94801F01CFF4FF4FA7039
:101B900000F0A5F9B121A54801F014FFA048007894
:101BA000401C9F4908709D480078401C9B49087064
:101BB000FFF710FD00252846FFF721FD9748037821
:101BC00097480278AFF20811964802F047FAFFF7FB
:101BD00001FD94492846FFF770FC1DE1214692481B
:101BE00000F0F2FE4FF4FA7000F079F9BB218F4853
:101BF00001F0E8FE4FF4FA7000F071F9B1218B4862
:101C000001F0E0FE86480078401C85490870834852
:101C10000078401C81490870FFF7DCFC002528464D
:101C2000FFF7EDFC7D4803787D480278AFF2701134
:101C30007C4802F013FAFFF7CDFC7A492846FFF7FB
:101C40003CFCE9E02146784800F0BEFE4FF4FA7013
:101C500000F045F9BB21754801F0B4FE4FF4FA706D
:101C600000F03DF9B121714801F0ACFE6C480078FC
:101C7000401C6B49087069480078401C674908702F
:101C8000FFF7A8FC00252846FFF7B9FC6348037856
:101C900063480278AFF2D811624802F0DFF9FFF72B
:101CA00099FC60492846FFF708FCB5E021465E48EC
:101CB00000F08AFE4FF4FA7000F011F9BB215B4886
:101CC00001F082FE4FF4FA7000F009F9B52157488F
:101CD00001F07AFE52480078401C514908704F4884
:101CE0000078401C4D490870FFF774FC0025284619
:101CF000FFF785FC4948037849480278AFF2402154
:101D0000484802F0ABF9FFF765FC46492846FFF763
:101D1000D4FB81E02146444800F056FE4FF4FA70AF
:101D200000F0DDF8BB21414801F04EFE4FF4FA709F
:101D300000F0D5F8B5213D4801F046FE384800785E
:101D4000401C374908703A480078401C38490870F0
:101D5000FFF740FC00252846FFF751FC3448037884
:101D60002F48027833A12F4802F078F9FFF732FCB0
:101D70002C492846FFF7A1FB4EE021462A4800F0F7
:101D800023FE4FF4FA7000F0AAF8BB21274801F0B7
:101D90001BFE4FF4FA7000F0A2F8B521234801F0C1
:101DA00013FE1F480078401C1D4908702048007829
:101DB000401C1F490870FFF70DFC00252846FFF75F
:101DC0001EFC1B480378164802781AA1154802F039
:101DD00045F9FFF7FFFB13492846FFF76EFB1BE0B1
:101DE0002146114800F0F0FD41F2883000F077F80C
:101DF000FFF7F0FB00252846FFF701FCFFF7EAFBA1
:101E0000C5882846FFF7FBFBFFF7E4FB00250FA181
:101E10002846FFF752FB00BF00BF70BD54000020F2
:101E200051000020700000200044004000040040E9
:101E3000550000202564204F746865722077617317
:101E40007465202564204F4B21000000506C6561B3
:101E5000736520706C61636520676172626167659C
:101E60000000000010B56FF0040000F0C4FE2E4822
:101E700000682E49B0FBF1F02D4908700846007843
:101E800000EB4001C1EBC0104FF6FF7101EAC0004A
:101E90002849088010BD0146254A12784A434FF070
:101EA000E0235A6100229A611A46126942F0010247
:101EB0001A6100BF4FF0E022106900F001021AB170
:101EC00000F48032002AF5D04FF0E022126922F0AF
:101ED00001024FF0E0231A6100229A617047014627
:101EE000144A12884A434FF0E0235A6100229A6153
:101EF0001A46126942F001021A6100BF4FF0E02257
:101F0000106900F001021AB100F48032002AF5D005
:101F10004FF0E022126922F001024FF0E0231A6133
:101F200000229A61704700001000002000127A0021
:101F3000560000205800002010B586B0044601214C
:101F400044F2040000F0A0FB4FF40070ADF8140060
:101F500003208DF8160018208DF8170005A92848D1
:101F600000F0D6F84FF48060ADF8140004208DF82E
:101F7000170005A9224800F0CBF825208DF80000B5
:101F800003208DF801008DF8020001208DF8030078
:101F9000684600F0E6FD01940020ADF80800ADF8B9
:101FA0000A00ADF80C00ADF810000C20ADF80E00E2
:101FB00001A9144800F00FFC012240F225511148FC
:101FC00000F0A1FC01210F4800F091FC06B010BD0B
:101FD00010B540F225510B4800F07AFD70B1094868
:101FE00000F0F6FCC4B208480088C0F30D000749B1
:101FF0000C5405480088401C0349088010BD0000AF
:1020000000080140003801405A000020640200200E
:102010000948804709480047FEE7FEE7FEE7FEE77C
:10202000FEE7FEE7FEE7FEE7FEE7FEE704480549B8
:10203000054A064B704700005B05000831010008A7
:1020400090030020904B0020902700209027002034
:1020500010B50446CC48844208D10121042000F088
:102060002DFB0021042000F029FB46E0C7488442F4
:1020700008D10121082000F021FB0021082000F0F8
:102080001DFB3AE0C248844208D10121102000F033
:1020900015FB0021102000F011FB2EE0BD4884420A
:1020A00008D10121202000F009FB0021202000F0B0
:1020B00005FB22E0B848844208D10121402000F00D
:1020C000FDFA0021402000F0F9FA16E0B3488442FE
:1020D00008D10121802000F0F1FA0021802000F0D9
:1020E000EDFA0AE0AE48844207D10121801500F0E4
:1020F000E5FA0021A01500F0E1FA10BD10B50121AC
:10210000084600F0DBFA0021012000F0D7FA10BDEC
:102110002DE9F0410246002500260020002300247E
:10212000002791F803C00CF00F0591F803C00CF0E4
:10213000100CBCF1000F03D091F802C04CEA050569
:1021400091F800C0BCF1000F31D0146800202BE0E2
:102150004FF0010C0CFA00F3B1F800C00CEA0306D2
:102160009E4220D183004FF00F0C0CFA03F7BC43C2
:1021700005FA03FC4CEA040491F803C0BCF1280FF3
:1021800006D14FF0010C0CFA00FCC2F814C00AE0B2
:1021900091F803C0BCF1480F05D14FF0010C0CFAC7
:1021A00000FCC2F810C0401C0828D1D31460B1F85C
:1021B00000C0BCF1FF0F34DD546800202EE000F1B8
:1021C000080C4FF0010808FA0CF3B1F800C00CEA53
:1021D00003069E4221D183004FF00F0C0CFA03F747
:1021E000BC4305FA03FC4CEA040491F803C0BCF1BB
:1021F000280F05D100F1080C08FA0CF8C2F8148079
:1022000091F803C0BCF1480F07D100F1080C4FF062
:10221000010808FA0CF8C2F81080401C0828CED338
:102220005460BDE8F0814FF6FF710180022181709A
:102230000421C17070470246002093680B400BB127
:10224000012000E0002070470146886880B2704796
:1022500002460020D3680B400BB1012000E00020B3
:1022600070470146C86880B270470161704741619C
:1022700070470AB1016100E041617047C160704779
:102280004FF480320A43826181618261826982698E
:10229000704702460020434B18684FF68073184081
:1022A00040EA021008433F4B186070473E49C8613E
:1022B0007047F0B50A46002300240021002500F0F5
:1022C0000046B6F1004F02D1364EF16901E0354EBD
:1022D0007168C0F3034583B200F44016B6F5401FA1
:1022E00008D121F070612F4E766826F070662D4F70
:1022F0007E6012E000F48016B6F5801F06D103263A
:1023000006FA05F4A14341F0706106E0460D36017E
:1023100003FA06F6B14341F0706122B1460D360171
:1023200003FA06F6314300F00046B6F1004F02D141
:102330001C4EF16101E01B4E7160F0BD30B5002212
:102340008B071C0F0F2303FA04F2164B08338C1073
:1023500053F824309343134C08348D1044F825303F
:1023600023468C1053F824308C07240F00FA04F411
:1023700023430C4C08348D1044F8253030BD0A49F5
:10238000DC3108607047000000080140000C01408B
:10239000001001400014014000180140001C0140E1
:1023A000002001400000014000002042DF4800689A
:1023B00040F00100DD49086008464068DC490840FB
:1023C000DA49486008460068DA490840D749086099
:1023D0000846006820F4802008600846406820F421
:1023E000FE0048604FF41F0088607047CF490968BD
:1023F00021F48031CD4A11601146096821F4802111
:102400001160B0F5803F03D0B0F5802F0ED106E00B
:10241000C649096841F48031C44A116007E0C349E4
:10242000096841F4A021C14A116000E000BF00BF6B
:10243000704710B501460022002300204A11012AEE
:1024400002D1BA4C236806E0022A02D1B74C236AB3
:1024500001E0B64C636A01F01F02012494401C4065
:102460000CB1012000E0002010BD38B50020009024
:102470000024002500BF3120FFF7DBFF0546009850
:10248000401C00900098B0F5A06F01D0002DF2D054
:102490003120FFF7CEFF08B1012400E000242046E0
:1024A00038BD01460020A14A106820F0F80040EA3B
:1024B000C10010607047A0490860704702460020C4
:1024C0009A4B586820F47C1042EA01031843974B5A
:1024D0005860704798490866704701460020934A43
:1024E000506820F003000843506070478F484068F0
:1024F00000F00C007047014600208C4A506820F024
:10250000F00008435060704701460020874A506839
:1025100020F4E06008435060704701460020834A81
:10252000506820F4605040EAC1005060704729B103
:102530007E4A527A02437D4B5A7204E07B4A527AB9
:1025400082437A4B5A7270477B49D8310860704792
:1025500001460020754A506820F44040084350600E
:1025600070470021714A20321170704A82F82010A1
:10257000012802D004280AD104E001216B4A20324C
:10258000117005E00521694A2032117000E000BF9A
:1025900000BF70476949086070476449096A014390
:1025A000624A11627047654944390860704730B526
:1025B00000210022002400235C4D6D6805F00C0111
:1025C00021B1042905D0082923D105E05C4D05601F
:1025D00022E05B4D05601FE0544D6D6805F47012FC
:1025E000524D6D6805F48034022505EB92421CB90A
:1025F000544D554305600BE04C4D6D6805F40035B6
:102600001DB1504D5543056002E04D4D55430560E9
:1026100002E04B4D056000BF00BF444D6D6805F002
:10262000F0010909484D6B5C0568DD4045603F4D90
:102630006D6805F4E061090A434D6B5C4568DD4057
:1026400085603A4D6D6805F46051C90A3E4D6B5C7A
:102650004568DD40C560354D6D6805F44041890B26
:102660003A4D6B5CC568B5FBF3F5056130BD29B12A
:102670002E4A526902432D4B5A6104E02B4A52699B
:1026800082432A4B5A61704729B1284A9269024312
:10269000264B9A6104E0254A92698243234B9A6152
:1026A000704729B1214AD2690243204BDA6104E024
:1026B0001E4AD26982431D4BDA61704729B11B4A19
:1026C000D2680243194BDA6004E0184AD2688243A8
:1026D000164BDA60704729B1144A12690243134B52
:1026E0001A6104E0114A12698243104B1A61704763
:1026F00012494039086070470F49C86470470B4958
:10270000C87170470948406A40F0807007494862C4
:10271000704701460020054A92680A400AB101202C
:1027200000E00020704701498872704700100240A5
:102730000000FFF8FFFFF6FE000042428004424224
:1027400000127A0000093D005C0000206C000020AF
:1027500010B50446FB48844209D101218803FFF7E4
:10276000ADFF00214FF48040FFF7A8FF32E0F648AC
:10277000844209D101214804FFF7ADFF00214FF445
:102780000030FFF7A8FF25E0F048844209D101217D
:102790008804FFF7A0FF00214FF48020FFF79BFF84
:1027A00018E0EB48844209D10121C804FFF793FFE8
:1027B00000214FF40020FFF78EFF0BE0E548844234
:1027C00008D101210805FFF786FF00214FF4801092
:1027D000FFF781FF10BD2DE9F04786B005460E4694
:1027E0000024A24600BFA1460027B08900B100BF67
:1027F0002F462C8A4CF6FF700440F08804432C824C
:10280000AC894EF6F3100440B088318908437189D1
:1028100008430443AC81AC8A4FF6FF400440B089C2
:102820000443AC8201A8FFF7C2FEC648874202D12A
:10283000DDF810A001E0DDF80CA0A88900F400404C
:1028400040B10AEBCA0000EB0A1031684900B0FB46
:10285000F1F807E00AEBCA0000EB0A1031688900C2
:10286000B0FBF1F86420B8FBF0F00401200964210A
:1028700001FB1089A88900F4004040B1322000EB30
:10288000C900B0FBF1F000F00700044308E032207B
:1028900000EB09106421B0FBF1F000F00F000443DD
:1028A0002C8106B0BDE8F0874FF41651016000217D
:1028B0008180C18001810C2141810021818170478B
:1028C00010B502460020108A4FF2FF0318400B8813
:1028D0004C8823438C882343CC882343184310829D
:1028E00010BD0021018041808180C180704721B1ED
:1028F000828942F40052828104E082894DF6FF739E
:102900001A4082817047F0B5034600240026002556
:10291000002040F66A17B94200D100BF1846C1F343
:10292000421401F01F06012707FA06F5012C01D118
:102930000C3004E0022C01D1103000E014301AB148
:1029400007682F43076002E00768AF430760F0BDE8
:102950001AB1838A0B43838202E0838A8B4383828A
:102960007047028A4FF6F0731A400282028A0A43C5
:102970000282704782894FF2FF731A4082818289F6
:102980000A438281704721B1828942F0020282812A
:1029900004E082894FF6FD731A4082817047028AF3
:1029A0004FF6DF731A400282028A0A43028270479E
:1029B00021B1028A42F48042028204E0028A4BF68C
:1029C000FF731A4002827047C1F308028280704789
:1029D00001468888C0F308007047818941F00101F1
:1029E00081817047028BD2B20283028B42EA0122BC
:1029F00002837047028B02F47F420283028B0A43F8
:102A00000283704721B1828A42F02002828204E070
:102A1000828A4FF6DF731A408282704721B1828A20
:102A200042F01002828204E0828A4FF6EF731A406D
:102A30008282704721B1828A42F00802828204E0D9
:102A4000828A4FF6F7731A408282704721B18289D9
:102A500042F40042828103E08289C2F30E02828145
:102A6000704721B1828A42F40062828204E0828A45
:102A70004FF2FF731A4082827047828A4FF6FB73CF
:102A80001A408282828A0A438282704721B1828AF6
:102A900042F00202828204E0828A4FF6FD731A40FD
:102AA0008282704702460020B1F5007F00D100BF4E
:102AB00013880B400BB1012000E00020704701F4A7
:102AC0000072B2F5007F00D100BFCA430280704798
:102AD00070B50246002400230025002040F66A1647
:102AE000B14200D100BFC1F3421501F01F0301261E
:102AF00006FA03F3012D02D19689334006E0022D38
:102B000002D1168A334001E0968A33400C12012626
:102B100006FA04F41688344013B10CB1012000E029
:102B2000002070BD10B50022002340F66A14A142B7
:102B300000D100BF0A1201249440A3B2DC430480F8
:102B400010BD000000380140004400400048004033
:102B5000004C00400050004031490143314A1160AF
:102B6000704770B5002100230F22C47804B32D4CA8
:102B7000246804F4E064C4F5E064210AC1F10403AC
:102B8000CA40447804FA03F18478144021430901CF
:102B9000254C0678A155047804F01F050124AC40AB
:102BA00005786D11AD0005F1E025C5F8004109E09B
:102BB000047804F01F050124AC401C4D0678761102
:102BC00045F8264070BD1A4A0A400243154B1B1FA8
:102BD0001A60704739B1134A121D12680243114B33
:102BE0001B1D1A6006E00F4A121D126882430D4B2E
:102BF0001B1D1A607047042808D14FF0E0210969B5
:102C000041F004014FF0E022116107E04FF0E021B4
:102C1000096921F004014FF0E022116170470000C2
:102C20000000FA050CED00E000E400E080E100E0C7
:102C300080FFFF1F10B50446FE48844208D10121E1
:102C4000C014FFF73BFD0021E014FFF737FDC4E09F
:102C5000B4F1804F08D101210846FFF73CFD002167
:102C60000120FFF738FDB8E0F348844208D1012184
:102C70000220FFF730FD00210220FFF72CFDACE021
:102C8000EE48844208D101210420FFF724FD0021F1
:102C90000420FFF720FDA0E0E948844208D101218B
:102CA0000820FFF718FD00210820FFF714FD94E02D
:102CB000E448844208D101211020FFF70CFD0021D7
:102CC0001020FFF708FD88E0DF48844208D1012189
:102CD0002020FFF700FD00212020FFF7FCFC7CE016
:102CE000DA48844208D101214014FFF7E7FC0021B3
:102CF0006014FFF7E3FC70E0D548844209D101215C
:102D0000C804FFF7DBFC00214FF40020FFF7D6FCDE
:102D100063E0D048844209D101210805FFF7CEFCC9
:102D200000214FF48010FFF7C9FC56E0CA488442E6
:102D300009D101214805FFF7C1FC00214FF4001023
:102D4000FFF7BCFC49E0C548844208D1012140207E
:102D5000FFF7C1FC00214020FFF7BDFC3DE0C0486B
:102D6000844208D101218020FFF7B5FC002180209A
:102D7000FFF7B1FC31E0BB48844208D10121801546
:102D8000FFF7A9FC0021A015FFF7A5FC25E0B64838
:102D9000844209D101210804FFF790FC00214FF47F
:102DA0008030FFF78BFC18E0B048844209D1012144
:102DB0004804FFF783FC00214FF40030FFF77EFC4E
:102DC0000BE0AB48844208D101218804FFF776FC70
:102DD00000214FF48020FFF771FC10BD0022028813
:102DE000944B98420ED0994B98420BD0B0F1804F43
:102DF00008D0914B984205D0904B984202D0904B0E
:102E0000984204D14FF68F731A404B881A438D4B6A
:102E1000984207D08C4B984204D04FF6FF431A409B
:102E2000CB881A4302808B8883850B880385814B6E
:102E300098420BD0854B984208D08B4B984205D0D6
:102E40008A4B984202D08A4B984201D10B7A038672
:102E500001238382704770B5002400220023058C73
:102E60004FF6FE7635400584028C8388048B4FF63E
:102E70008F752C40B51E2C400D882C43751E2A40A2
:102E80000D892A434D882A436A4DA8420BD06F4DC5
:102E9000A84208D0744DA84205D0744DA84202D073
:102EA000734DA84213D14FF6F7752A404D892A4336
:102EB0004FF6FB752A408D882A434FF6FF652B405D
:102EC0004FF6FF552B408D892B43CD892B438380B3
:102ED0000483CD888586028470BD70B500240022ED
:102EE0000023058C4FF6EF7635400584028C8388ED
:102EF000048B48F6FF752C404FF6FF452C400D889B
:102F00004FF6FF7606EA05252C434FF6DF752A407B
:102F10000D8906EA05152A434D8806EA05152A4358
:102F2000444DA84202D0494DA8421DD14FF67F75AD
:102F30002A404D894FF6FF7606EA05152A434FF6DB
:102F4000BF752A408D8806EA05152A434FF6FF35DE
:102F50002B404FF2FF752B408D8906EA85052B43E8
:102F6000CD8906EA85052B4383800483CD880587B8
:102F7000028470BD70B5002400220023058C4FF63A
:102F8000FF6635400584028C8388848B4FF68F75ED
:102F90002C404FF6FC752C400D882C434FF6FF5506
:102FA0002A400D894FF6FF7606EA05252A434D880B
:102FB00006EA05252A431F4DA84202D0234DA84208
:102FC0001DD14FF2FF752A404D894FF6FF7606EA74
:102FD00005252A434FF6FF352A408D8806EA052548
:102FE0002A434EF6FF752B404DF6FF752B408D8919
:102FF00006EA05152B43CD8906EA05152B43838088
:103000008483CD888587028470BD70B5002200233B
:103010000024058C4EF6FF7635400584038C8488A9
:10302000828B48F6FF752A404FF6FF452A400D88EF
:1030300020E00000002C0140000400400008004097
:10304000000C00400010004000140040003401401B
:10305000004C014000500140005401400018004065
:10306000001C00400020004000400140004401409E
:10307000004801404FF6FF7606EA05252A434DF643
:10308000FF752B400D8906EA05352B434D8806EA6E
:1030900005352B43FA4DA84202D0FA4DA84208D17B
:1030A0004BF6FF752C408D894FF6FF7606EA8515A5
:1030B0002C4384808283CD88A0F84050038470BD67
:1030C000828B4FF2FF331A408283828B4FF6FF735D
:1030D00003EA01231A4382837047F0B50C46154674
:1030E000002200210026078C4EF6FF7C07EA0C0721
:1030F0000784828B018C4FF6FF7707EA043640F68F
:10310000FF473A404FF6FF7707EA05273A434FF665
:10311000FF7707EA03373A43D94FB8420ED0D94F69
:10312000B8420BD0B0F1804F08D0D74FB84205D08D
:10313000D64FB84202D0D64FB84206D14DF6FF77EF
:10314000394046F48057394305E047F6FF57394088
:1031500044F48057394382830184F0BD828B4FF65B
:10316000F3731A408283828B0A4382837047F0B5DF
:103170000C461546002200210026078C4FF6FF6CF6
:1031800007EA0C070784828B018C4FF6FF7707EA6A
:1031900004264FF60C773A404FF6FF7707EA0317FD
:1031A0002F433A43B64FB8420ED0B64FB8420BD079
:1031B000B0F1804F08D0B44FB84205D0B34FB842F9
:1031C00002D0B34FB84206D14FF6FF57394046F40C
:1031D0008077394305E04FF2FF57394044F4807758
:1031E000394382830184F0BD028B4FF2FF331A40D2
:1031F0000283028B4FF6FF7303EA01231A43028313
:103200007047F0B50C461546002200210026078CB9
:103210004FF6EF7C07EA0C070784028B018C4FF610
:10322000FF7707EA041640F6FF473A404FF6FF776C
:1032300007EA03373A434FF6FF7707EA05273A4391
:103240008F4FB8420ED08F4FB8420BD0B0F1804FA5
:1032500008D08D4FB84205D08C4FB84202D08C4F69
:10326000B84206D14FF6DF77394046F010073943B0
:1032700005E04FF65F77394044F010073943028389
:103280000184F0BD028B4FF6F3731A400283028B68
:103290000A4302837047F0B50C4615460022002110
:1032A000068C4FF6FE773E400684028B018C4FF66B
:1032B0000C7632407E1C06EA03162E433243704ED3
:1032C000B0420ED06F4EB0420BD0B0F1804F08D05C
:1032D0006D4EB04205D06D4EB04202D06C4EB04241
:1032E00006D14FF6FD76314044F00106314305E04A
:1032F0004FF6F576314044F00106314302830184F4
:10330000F0BD70B505460C465D4885420ED05D485F
:1033100085420BD0B5F1804F08D05B48854205D07F
:103320005A48854202D05A48854200D100E000BF89
:10333000208850B92389A28861882846FFF7ABFF0F
:10334000E1882846FFF79EFF25E0208804280AD15F
:103350002389A28861882846FFF753FFE188284621
:10336000FFF742FF17E0208808280AD12389A288A6
:1033700061882846FFF7FBFEE1882846FFF7EEFE4E
:1033800009E02389A28861882846FFF7A6FEE18824
:103390002846FFF795FE70BD2DE9F04105460C4625
:1033A00000260127608808B9022600E00026A088D0
:1033B000012801D1022700E001272088A0B9238934
:1033C000A28861882846FFF766FFE1882846FFF754
:1033D00059FF23893A4631462846FFF712FFE18814
:1033E0002846FFF701FF13E02389A2886188284659
:1033F000FFF707FFE1882846FFF7F6FE23893A46E4
:1034000031462846FFF747FFE1882846FFF73AFF95
:10341000BDE8F0810A884B881A438B881A43CB8811
:103420001A430B891A434B891A438B891A43A0F814
:10343000442070474FF6FF71818000210180C180D8
:103440004180017270470021018041808180C180EC
:10345000018141818181C1817047002101804180CA
:10346000012181800021C1800181704700210180FC
:1034700041808180C180018141818181704700004C
:10348000002C0140003401400004004000080040CE
:10349000000C004021B1028842F00102028004E0E9
:1034A00002884FF6FE731A400280704731B1B0F8BF
:1034B000442042F40042A0F8442005E0B0F8442043
:1034C000C2F30E02A0F8442070471AB183890B435F
:1034D000838102E083898B438381704781827047B7
:1034E00041EA0203A0F8483070471AB183890B43C0
:1034F000838102E083898B438381704701894FF682
:10350000F8721140018170470A46002101894FF687
:103510008F73194011430181704730B504460D4641
:1035200029462046FFF7F0FF208940F00700208160
:1035300030BD2DE9F04104460D4616461F46602D6C
:1035400006D13B46012231462046FFF75AFE05E0F0
:103550003B46012231462046FFF79DFE2946204684
:10356000FFF7D2FF208940F007002081BDE8F081FD
:1035700030B50C4600210189C9B24FF6FF7505EA46
:103580000325154325432943018130BD2DE9F04131
:1035900005460E4617469846002443463A463146AD
:1035A0002846FFF7E5FF2C894FF6F870044044F0F9
:1035B00007044FF68F70044044F070042C81BDE87E
:1035C000F081F0B504460D4616461F463B4632468E
:1035D00029462046FFF7CCFF208940F48040208117
:1035E000F0BD0185828270470A46002101884FF6AE
:1035F0008F731940114301807047F0B50C46154692
:103600001E460021002200230189028B038C4FF605
:10361000F877394021434FF6FC473A4040F2011712
:103620003A434FF6DD773B404FF6FF7707EA061740
:103630002F433B43018102830384F0BD0A460021EE
:10364000018B4FF68F7319401143018370470A466F
:103650000021018B48F6FF7319404FF6FF7303EA10
:1036600002231943018370470A460021818B4FF6DC
:103670008F7319401143818370470A460021818B63
:1036800048F6FF7319404FF6FF7303EA022319430C
:103690008183704721B1028842F08002028004E0F9
:1036A00002884FF67F731A400280704721B18288EA
:1036B00042F00402828004E082884FF6FB731A40D5
:1036C0008280704721B1828842F00802828004E043
:1036D00082884FF6F7731A408280704721B1828842
:1036E00042F00102828004E082884FF6FE731A40A5
:1036F000828070470A460021018B4FF6F77319400C
:103700001143018370470A460021018B4FF2FF737A
:1037100019404FF6FF7303EA0223194301837047F0
:103720000A460021818B4FF6F773194011438183BC
:1037300070470A460021818B4FF2FF7319404FF604
:10374000FF7303EA02231943818370470A4600216D
:10375000018B4FF6FB7319401143018370470A46F2
:103760000021018B4FF6FF3319404FF6FF7303EA38
:1037700002231943018370470A460021818B4FF6CB
:10378000FB7319401143818370470A460021818BE6
:103790004FF6FF3319404FF6FF7303EA0223194334
:1037A000818370470A460021018B4FF67F731940D1
:1037B0001143018370470A460021018BC1F30E01BA
:1037C0004FF6FF7303EA02231943018370470A4649
:1037D0000021818B4FF67F7319401143818370471D
:1037E0000A460021818BC1F30E014FF6FF7303EAF5
:1037F00002231943818370470A460021018C4FF64A
:10380000FD7319401143018470470A460021018C61
:103810004FF6F77319401143018470470A4600219F
:10382000018C4FF6DF7319404FF6FF7303EA021362
:103830001943018470470A460021018C4FF67F73BB
:1038400019404FF6FF7303EA0213194301847047CE
:103850000A460021018C4FF6FF5319404FF6FF73C3
:1038600003EA02231943018470470A460021018CB0
:103870004FF2FF7319404FF6FF7303EA0223194317
:10388000018470470A460021018C4DF6FF731940F0
:103890004FF6FF7303EA023319430184704730B5D2
:1038A000002301248C40A3B2048C9C430484048C28
:1038B00002FA01F5ADB22C43048430BD30B50023CB
:1038C00004248C40A3B2048C9C430484048C02FA2C
:1038D00001F5ADB22C43048430BD70B50346002021
:1038E00000241846183001258D40ACB21D8CA5432C
:1038F0001D8409B1082909D100EB6100056825F094
:10390000700505600568154305600EE00D1FC5F3E1
:103910004E052844056825F4E045056005684FF626
:10392000FF7606EA02263543056070BD21B10288A4
:1039300042F00202028004E002884FF6FD731A4052
:103940000280704721B1028842F00402028004E044
:1039500002884FF6FB731A400280704721B18288BB
:1039600042F08002828004E082884FF67F731A4022
:103970008280704702884FF6F7731A4002800288EF
:103980000A430280704782884FF68F731A40828004
:1039900082880A438280704702894FF6F8731A4082
:1039A000028102890A430281704702894FF67F73C0
:1039B0001A40028102890A4302817047818470475C
:1039C000818570478186704701877047818770477E
:1039D000A0F84010704702884FF6FF431A4002805B
:1039E00002880A43028070470146888E704701466C
:1039F000088F70470146888F70470146B1F8400034
:103A000070470146888C70470146088D7047024612
:103A10000020138A0B400BB1012000E0002070470A
:103A2000CA430282704730B50246002000230024BA
:103A3000158A05EA0103958905EA010413B10CB161
:103A4000012000E0002030BDCA4302827047000020
:103A500030B943F2DB028100A1F1C0410A6005E008
:103A600043F2D2028100A1F1C0410A606FF07042BE
:103A7000411C8900A1F1C0410A608100A1F1C0414F
:103A8000C1F80421704710280AD118214FF02042B4
:103A90001166402151664FF0FC319166D16610E00D
:103AA0001821F74A116040214FF02042C2F88410DB
:103AB0004FF0FC31F24A083211604FF02042C2F858
:103AC0008C1070471820EE4920310860002009064C
:103AD000C1F8A4004FF0FC30E94928310860091D05
:103AE0000860091D08607047D0E901121143C268DF
:103AF0001143026911434269114382691143C2694A
:103B00001143026A1143426A1143826A1143C26A35
:103B10001143026B114302689200A2F1C04211608E
:103B2000816808290BD101688900A1F1C0410968A9
:103B300041F0400201688900A1F1C0410A60416B77
:103B40000968426B526841EA0211426B926841EA8D
:103B50000221426B928941EA0241426B128A41EA98
:103B60000251426B127D41EA0261426B926911433C
:103B70000268521C9200A2F1C0421160C16AB1F504
:103B8000804F1BD1816B0968826B526841EA021138
:103B9000826B926841EA0221826B128A41EA0251E9
:103BA000826B127D41EA0261826B92691143026865
:103BB0009200A2F1C042C2F8041107E06FF0704217
:103BC00001688900A1F1C041C1F80421704730B5F6
:103BD000002100220023446844F0080485682C4337
:103BE000C5682C4305692C43456944EA4524856929
:103BF00044EA4531C4692468C5696D6844EA05240E
:103C0000C5692D8944EA0544C5692D7B44EA0562EE
:103C1000046A2468056A6D6844EA0524056A2D89EA
:103C200044EA0544056A2D7B44EA05630468102CC8
:103C300005D14FF020442166A266E36608E0904C6F
:103C400021604FF02044C4F888208D4C0C34236050
:103C500030BD016841F01001426841EA42218268AA
:103C600041EA4231864A20321160C1680968C2685F
:103C7000526841EA0221C268128941EA0241C268DF
:103C8000127B41EA02617E4A2832116001690968AB
:103C90000269526841EA02210269128941EA02413D
:103CA0000269127B41EA0261754A2C321160416956
:103CB00009684269526841EA02214269128941EA6F
:103CC00002414269127B41EA02614FF02042C2F890
:103CD000B010704700210160022141600021816025
:103CE000C160016141618161C16101624FF4805134
:103CF0004162490081620021C16201630F21426B70
:103D00001160426B5160FF21426B91600F21426B49
:103D1000D160426B1161426B51610021426B916134
:103D20000F21826B1160826B5160FF21826B916069
:103D30000F21826BD160826B1161826B5161002116
:103D4000826B9161704710210160002141608160A8
:103D5000C160016141618161FC21C2691160C26978
:103D60005160C2699160C269D160026A1160026AE1
:103D70005160026A9160026AD1607047002101605F
:103D800041608160FC21C2681160C2685160C268F4
:103D90009160C268D1600269116002695160026974
:103DA00091600269D1604269116042695160426963
:103DB00091604269D160704751B18200A2F1C04266
:103DC000126842F001038200A2F1C042136009E0D0
:103DD0008200A2F1C04212682A4B1A408300A3F16C
:103DE000C0431A60704799B1102808D14FF02042A3
:103DF000126E42F004024FF020431A661DE0204A82
:103E0000126842F004024FF02043C3F8802014E00F
:103E1000102809D14FF02042126E1A4BDB1E1A40B7
:103E20004FF020431A6608E0154A1268154BDB1E56
:103E30001A404FF02043C3F88020704748B1104922
:103E40002031096841F004014FF02042C2F8A0106F
:103E500009E00B49203109680A4AD21E11404FF08F
:103E60002042C2F8A0107047B9B110280CD14FF011
:103E70002042126E42F040024FF020431A661FE0CB
:103E8000800000A0FEFF0F00724A126842F040025C
:103E90004FF02043C3F8802012E0102808D14FF0E3
:103EA0002042126E6C4B1A404FF020431A6607E016
:103EB000684A1268684B1A404FF02043C3F88020CC
:103EC000704701460020102903D14FF02042506F67
:103ED00002E0604A14321068704710B5F2B1102841
:103EE00007D14FF020435B6E0B434FF020446366D5
:103EF00032E0B0F5807F08D1564B1B1D1B680B4389
:103F00004FF02044C4F8843026E0524B24331B6821
:103F10000B434FF02044C4F8A4301DE0102807D113
:103F20004FF020435B6E8B434FF02044636613E0F9
:103F3000B0F5807F08D1474B1B1D1B688B434FF0AA
:103F40002044C4F8843007E0424B24331B688B4381
:103F50004FF02044C4F8A43010BD10B50246002034
:103F60000023102A03D14FF02044636E09E0B2F51C
:103F7000807F03D1374C241D236802E0354C243464
:103F8000236803EA01040CB1012000E0002010BD09
:103F9000102807D14FF02042526E8A434FF0204341
:103FA0005A6613E0B0F5807F08D12A4A121D1268C4
:103FB0008A434FF02043C3F8842007E0254A243287
:103FC00012688A434FF02043C3F8A420704770B5AD
:103FD00002460020002300240025102A03D14FF0C0
:103FE0002046736E09E0B2F5807F03D1194E361D6D
:103FF000336802E0174E2436336803EA010403EA0B
:10400000D10514B10DB1012000E0002070BD1028D1
:1040100008D14FF02042526E22EAD1024FF02043E5
:104020005A6615E0B0F5807F09D10A4A121D126860
:1040300022EAD1024FF02043C3F8842008E0054A69
:104040002432126822EAD1024FF02043C3F8A420A0
:1040500070470000800000A0BFFF0F000FB41CB528
:10406000074B06AA7B4469460090059800F0DBF8F0
:104070000020694600F0EAF81CBC5DF814FB000063
:10408000E50100002DE9F0410E46044600202062C3
:104090002046E168884730B3252805D0D4E90121BE
:1040A0009047206A401CF2E7E168204600278847D5
:1040B000050018D0A5F14100192802D820354FF489
:1040C00000673246294620462760FCF76BF840B16E
:1040D000012804D0F61D26F007060836D8E7361D5D
:1040E000D6E72846DAE7206ABDE8F0812DE9F041FD
:1040F0000646002410687529314616A510D0AFF386
:104100000080002802DA404213A507E031688A07E0
:1041100001D512A502E0490704D511A5012401E04B
:10412000AFF3008000210A2206F1240709E0B0FB6A
:10413000F2FCB0FBF2F302FB1C003030785418465E
:10414000491C0028F3D123462A463046BDE8F041F9
:1041500000F00BB8000000002D0000002B00000054
:10416000200000007047704770472DE9F0470D466A
:1041700099469246044600F124080168880604D551
:10418000E06921F01001216000E00120A84201DD7A
:10419000471B00E00027A1697A1902EB0900081A01
:1041A000A0612078C00602D42046AFF3008000262C
:1041B00008E0D4E901211AF806009047206A401C63
:1041C000761C20624E45F4DB2078C0060AD52046D6
:1041D000AFF3008006E0D4E9012130209047206A47
:1041E000401C2062381EA7F10107F4DC07E0D4E987
:1041F000012118F805009047206A401C2062281E03
:10420000A5F10105F3DC2046AFF30080207800061D
:1042100002D50220BDE8F0870120FBE701694A1CB6
:1042200002610878704700B58FB0CDE901310021F7
:10423000059105497944CDE9031011466846FFF719
:1042400021FF0FB000BD0000E5FFFFFF0A6802F884
:10425000010B0A607047754600F02CF8AE46050069
:104260006946534620F00700854618B020B5FDF793
:10427000DDFEBDE820404FF000064FF000074FF094
:1042800000084FF0000B21F00701AC46ACE8C00974
:10429000ACE8C009ACE8C009ACE8C0098D4670477D
:1042A00010B50446AFF300802046BDE81040FBF790
:1042B0008BBF0000004870472C03002001491820E4
:1042C000ABBEFEE7260002007047000001480088F0
:1042D00070470000000002604FF0C0410880704746
:1042E00001490880704700000000026021F0004290
:1042F000A2F16052B2F5801F01F0004328BFD2F155
:104300007F6C0BD95FEA001C43EAC20242EB50709B
:1043100018BF704728BF20F001007047B2F5801F1A
:10432000BCBF184670474FEA410C1CF5001F02D273
:10433000084600F077BB70B500F075F90000008901
:10434000FFF7F6BF4FF00040A0F580007047000077
:104350002DE9C04130B4DFF8A0C23CEA111418BF07
:104360003CEA131400F0EC8081EA03051CEA111406
:1043700044EAD57418BF1CEA131500F0C780A4EBFB
:1043800005044FF0004545EAC12145EAC32341EA4F
:10439000505143EA525304F17F74994204F50034BA
:1043A0004FEAC0204FEAC22208BF904200F09C8032
:1043B0004FEA13650FF24016765D4FEA134506FB90
:1043C00005F7C7F1807706FB07F74FEAD737A7FB5A
:1043D00003687642C8F58038A7FB06CE38BFA8F13F
:1043E000010807FB08E64FF0000EA6FB028CE6FB77
:1043F00003CEDCF1000CCEF1004E38BFAEF1010E61
:10440000A6FB0C584FF000074FF00005E6FB0E87A7
:10441000A1FB08C6A0FB07CE16EB0E0645F1000572
:10442000E1FB076515F1E04E7EBFA4F580345FEA3D
:1044300046066D4116F1800745F100054FEA172742
:104440004FEA066647EA0567A6F1DE46B6F1805FE9
:104450004FEA15251FD9384624F0010C05EBC4712D
:10446000BCF1FE6F01EB0C1102D8F0BCBDE800817D
:1044700024425CBF01F5801E9EEAC47F02D4F0BCDA
:10448000BDE80081244238D4F0BCA1F1C041BDE8B0
:10449000004100F016B94FEAD22242EA43524FEAF5
:1044A000D323A7FB02864FEAD02040EA415007FB06
:1044B00003661EEA0E0F4FEAD12105FB026658BFC4
:1044C000A6EB0056B6EB00564FEA520E4EEAC37EFC
:1044D00018EB0E0E56EB530EBDD518EB02085E41DD
:1044E0007F1C55F10005B6E74FF480154FF000072B
:1044F0004FF000064FF00008ADE7F0BC4FF00000B1
:1045000001F1C04101F00041BDE8008111EA0C1F3A
:104510000CEA131500D00CE013EA0C1F00F0258004
:104520004FF00000F0BC81EA030101F00041BDE85A
:104530000081F0BCBDE8004181EA030100F0C1B890
:10454000F0BCBDE8004170B500F06DF8097EFC3E9E
:1045500000F007B881EA03014FF0000001F00041CC
:10456000704781EA030100F0ACB8F0BCBDE800413F
:104570004FF0000021497047FFFDFBF9F7F5F4F219
:10458000F0EEEDEBE9E8E6E4E3E1E0DEDDDBDAD8EE
:10459000D7D5D4D3D1D0CFCDCCCBCAC8C7C6C5C44C
:1045A000C2C1C0BFBEBDBCBBBAB9B8B7B6B5B4B363
:1045B000B2B1B0AFAEADACABAAA9A8A8A7A6A5A44E
:1045C000A3A3A2A1A09F9F9E9D9C9C9B9A99999812
:1045D0009797969595949393929191908F8F8E8EB5
:1045E0008D8C8C8B8B8A8989888887878685858442
:1045F00084838382828181800000FF070000F87F2E
:10460000B0FA80F310FA03F10AD0C3F11D0303F5E9
:1046100080634FEA41504FEA035202EBD1217047C9
:104620004FF0000070470EF1020E2EF0030E5EF800
:10463000046B364205D4012A43EB030515F5001F30
:1046400012D8012841EB010C1CF5001F0CD80ED12B
:104650004FEAD17C15F5001F0CEB4C0C0CF1020C51
:1046600008BF4CEBD37C04E04FF0080C01E04FEAAC
:10467000D37C0CEB4C0526FA05F606F00706B6F1DE
:10468000040C06D20EEB860CBDE870404CF0010C19
:104690006047DFE80CF0090B02024FF000414FF0D9
:1046A0000000A1F5002170BD19461046012851EB0C
:1046B000010418BFD4F5001484BF002001F00041AC
:1046C00070BD0808A0F500114FEA310170470000E5
:1046D00090EA010F48BF81F0004100F1E081421AE9
:1046E0003CBF801A89184FEAD0524FF07F4C1CEA29
:1046F000410FA2EBD15318BF9CEA026F00F03B8040
:104700004FF0004C4CEA00204CEA012121FA03FC56
:1047100010EB0C0C1ED202F1FF325FEA1C2040EBC2
:10472000C25038BF70471CF07F0F4FEA400C18BFD3
:10473000BCF17F4F38BF7047C3F12003994008BFD9
:1047400020F00100BCF17F4F38BF7047A0F1C0409E
:1047500000F068B94FEA3C00000A40EBC25028BFA5
:104760001CF0FF0F4FEA400CE6D018BFBCF17F4FA2
:1047700038BF7047EAE79CEA026F05D010EA5C0F89
:1047800008BF00F00040704710B500F005F900BF09
:1047900064FBBE3E401058BFC0F14040491058BFB6
:1047A000C1F140418142EFF3008070474FF47F0C2C
:1047B0001CEAD0121EBF1CEAD11392EA0C0F93EA36
:1047C0000C0F00F0858090EA010F48BF42F4807220
:1047D00040F4000C41F400002CF07F4120F07F40B9
:1047E00000B58142A2EB03020FF2081CACEB504E65
:1047F000C0F100009EF800E04FEA4E0E00FB0EFCF8
:1048000038BF49004FEA2C1C02F5FA020CFB0EF3EC
:104810004FEACE1E4FEA112C4FEAC1210EEB635E28
:1048200042EB22420EFB0CFC4FEA1C5300FB03112F
:104830004FEA112C4FEA01310EFB0CFC4FEADC4C25
:1048400000FB0C11C14228BF09184CEB03335DF883
:1048500004EB10EB410143EBC250B2F57C0F38BFC3
:10486000704729D512F0F00F1CBF00F1C04000F0D6
:1048700000407047008182838485868788898B8C7D
:104880008D8E8F919293959697999A9C9D9FA0A2B9
:10489000A3A5A7A8AAACAEB0B2B3B5B7B9BCBEC009
:1048A000C2C5C7C9CCCED1D4D7D9DCDFE2E6E9ECAA
:1048B000F0F3F7FAFE0000004FEA400C0CF1807CA8
:1048C000BCF17E4F28BF7047B0F1C04000F0AAB8DD
:1048D00090EA010F0CEAD11348BF42F4807262459E
:1048E00038BF634507D213F47F0F16D080EA01006A
:1048F00000F00040704710B500F04EF8097EFC3E15
:1049000000F005B880EA010000F00040704780EA3E
:10491000010000F0004000F085B812F47F0F04BFE2
:104920000248704780EA010000F07CB80000C07FB8
:1049300050EA010C00F113801CF5000F58BFBCF5C4
:10494000000F01D48842704707D710F5000F58BFF9
:1049500011F5000F15D488427047894270471CF545
:10496000000F04D5BCF5000FF7D5814270474FF01A
:10497000807C1CEB400F38BF1CEB410F01D2814201
:10498000704710B500F008F8922449004FF000502D
:104990004FF08051FFF7FEBE0EF1020E2EF0030E17
:1049A0005EF8044B244204D44FEA4102B2F17F4F37
:1049B00011D84FEA4003B3F17F4F0CD80ED14FEA24
:1049C000D07CB2F17F4F0CEB4C0C0CF1020C08BF09
:1049D0004CEBD17C04E04FF0080C01E04FEAD17CB5
:1049E0000CEB4C0324FA03F404F00704B4F1040CB8
:1049F00006D20EEB840CBDE810404CF0010C604771
:104A0000DFE80CF0070802024FF00040A0F580003C
:104A100010BD0846420018BFD2F1807288BF00F076
:104A2000004010BDFF2141EAD050C005704751EA57
:104A3000000C00F113801CF5000F58BFBCF5000FEF
:104A400001D48142704707D711F5000F58BF10F508
:104A5000000F15D481427047894270471CF5000F42
:104A600004D5BCF5000FF7D5884270474FF0807C25
:104A70001CEB410F38BF1CEB400F01D2884270473E
:104A800080EA010081EA000180EA0100FFF779BFB6
:104A900090EA010F48BF81F000413FF520AE421A75
:104AA00004D882F00042A0EB020011444FEAD05239
:104AB0004FF07F4C1CEA410FA2EBD15318BF9CEA88
:104AC000026F4AD04FF0004C4CEA00204CEA012122
:104AD00021FA03FCB0EB0C0C0FD412F0FE0F36D011
:104AE0005FEA4C001DD5001240EBC25038BF704742
:104AF0001CF03F0F18BF70470BE0A2F101025FEA04
:104B00001C2040EBC25038BF70471CF07F0F18BF0D
:104B10007047C3F12003994014BF401E20F00100EC
:104B2000704780084FEA122308BF7047B0FA80FC34
:104B3000A2EB0C02CCF1280C60FA0CF093EA122FD5
:104B400004BF00EBC25070474FEAC3707047130AAE
:104B50005FEADC1008BF7047F6E79CEA026F04D0FA
:104B600010EA5C0F08BF0020704710B5FFF714FF74
:104B700040DFF63E81F0004070470000000000007A
:104B800000000000000000000000000000181818DD
:104B90001818180800081800000000000034242429
:104BA00024000000000000000000000000001624A7
:104BB0007F2424247E2424000000000000083E6896
:104BC00048681C1612127C10100000000061D2967A
:104BD000740810162949C6000000000000003C645B
:104BE0006438724ACE467F00000000000018181892
:104BF0001800000000000000000000000004081879
:104C000010303030301010180C0400000020100854
:104C1000080C0404040C08181020000000080A34D2
:104C20001C6A0800000000000000000000000000F6
:104C30001818187F18181800000000000000000065
:104C400000000000001818083000000000000000FC
:104C50000000003C00000000000000000000000018
:104C60000000000000181800000000000002060408
:104C70000C080810102020400000000000003C66D6
:104C800042475B7342663C00000000000000187859
:104C90004808080808087E000000000000003C46A4
:104CA0000606040810207E000000000000007C06BC
:104CB00006043C0202067C000000000000000C1C00
:104CC00014246444FF0404000000000000007E601F
:104CD00060607E0202067C000000000000001E30C2
:104CE0006048764242623C000000000000007E0204
:104CF00006040C08181030000000000000003C62A0
:104D000042361C6642423C000000000000003C6647
:104D10004242661A02047800000000000000000011
:104D20001818000000181800000000000000000023
:104D300018180000001818083000000000000000DB
:104D400004183060100C0600000000000000000095
:104D500000007E007E000000000000000000000057
:104D6000301804060C1020000000000000301C0663
:104D7000060618100010100000000000001C224160
:104D800041DDB5A5A5AF94C0403C00000000181C53
:104D9000342426627E43C1000000000000007C46EF
:104DA00042467C4242427C000000000000001E207F
:104DB0004040404040603E000000000000007C4653
:104DC00042434343424678000000000000007E60FA
:104DD00060607E6060607E000000000000007E6019
:104DE00060607E60606060000000000000001E6087
:104DF0004040CE4242623E000000000000004242BD
:104E000042427E42424242000000000000007E1802
:104E10001818181818187E000000000000007C0404
:104E2000040404040444780000000000000042442C
:104E3000485070584C444200000000000000202000
:104E40002020202020203E0000000000000062669C
:104E5000675F5B5BC1C1C1000000000000006262CF
:104E600072525A4A4E4646000000000000003C6262
:104E700043C3C3C343623C000000000000007C4603
:104E800042424678404040000000000000003C6282
:104E900043C3C3C343623C180F00000000007C669C
:104EA00062667C6C646662000000000000003E6088
:104EB00040601C0602027C000000000000007F1819
:104EC00018181818181818000000000000004242B6
:104ED0004242424242623C00000000000000C143E6
:104EE00042622624341C1800000000000000C1C1EA
:104EF00041495B5B76666600000000000000436687
:104F00003418181C2466C300000000000000C142D1
:104F100066341C18181818000000000000007E02FB
:104F2000040C181020607E0000000000001C10100F
:104F30001010101010101010101C00000040202045
:104F4000101008080C04060200000000003C0C0CC5
:104F50000C0C0C0C0C0C0C0C0C3C00000000181C75
:104F600024620000000000000000000000000000BB
:104F7000000000000000000000FF00000020100002
:104F80000000000000000000000000000000000021
:104F90003C06023E42467A000000000000404040CD
:104FA0005C62424242427C000000000000000000BF
:104FB0001E20604060203E0000000000000202024F
:104FC0003E62424242663A000000000000000000DB
:104FD0003C62427E40603E0000000000000F18105E
:104FE000107E1010101010000000000000000000E3
:104FF0003F66426658403E43423C0000004040400D
:105000005C62424242424200000000000018180068
:105010007808080808087E000000000000040C0062
:105020007C040404040404040C7800000060606044
:10503000626C787068646200000000000078080804
:105040000808080808087E000000000000000000B2
:10505000764B4B4B4B4B4B00000000000000000018
:105060005C62424242424200000000000000000038
:105070003C62424342623C0000000000000000002D
:105080005C62424242427C4040400000000000001E
:105090003E62424242663A02020200000000000004
:1050A0006E7263606060600000000000000000003D
:1050B0003E20203C06027C00000000000000101092
:1050C000FE10101010101E00000000000000000074
:1050D0004242424242663A000000000000000000E6
:1050E000434266243418180000000000000000004D
:1050F000C1C15B5A5E66660000000000000000004F
:1051000062261C181C26620000000000000000003F
:1051100043426624341C181830E0000000000000F0
:105120007E060C1810207E0000000000000E1810F3
:105130001010307010101010180E00000808080829
:1051400008080808080808080808000000301808BF
:1051500008080C0E080808081830000000000000BD
:105160000000714B0600000000000000000000007D
:10517000000000000000000000000000000000002F
:10518000000000000000000000000000000000001F
:10519000000000000000000000000000000000000F
:1051A00000000000038001800180018001800180F7
:1051B00001800180018001800000000003C003C065
:1051C00000000000000000000000000000000000DF
:1051D000000000000E700E700E700C300000000019
:1051E00000000000000000000000000000000000BF
:1051F00000000000000000000000000000000000AF
:105200000000000000000618063806307FFE0C3053
:105210000C300C300C307FFE0C601C601860186085
:10522000000000000000000000000000000000007E
:10523000000000C000C00FF83CC831C031803D8084
:105240001F8003F001F8031C030C031C3FF83FE030
:105250000700060000000000000000000000000041
:1052600000001C007E0E630C631863307E6000C07B
:1052700001800300077C0EE61CC618C630C6607CA1
:10528000000000000000000000000000000000001E
:10529000000000000FE01CF0387038701C601FC068
:1052A0000F003F8C71CC60EC607C70383CFC1FCEF2
:1052B00000000000000000000000000000000000EE
:1052C0000000000003C00180018001800000000098
:1052D00000000000000000000000000000000000CE
:1052E00000000000000000000000000000000000BE
:1052F0000000003000E001C001800300070006004C
:1053000006000E000E000E000E000600070003004F
:10531000038001C000E00030000000000000000039
:1053200000000C0006000380018001C000E0006066
:1053300000600070007000700060006000E000C05D
:105340000180038006000C00000000000000000047
:1053500000000000018011881DB803C007E03DBCBB
:105360000188018000000000000000000000000033
:10537000000000000000000000000000000000002D
:10538000000000000000000000000180018001809A
:10539000018001807FFE018001800180018000008A
:1053A00000000000000000000000000000000000FD
:1053B00000000000000000000000000000000000ED
:1053C0000000000000000000000003C003C001C096
:1053D00001C003801F00000000000000000000006A
:1053E00000000000000000000000000000000000BD
:1053F000000000000FF000000000000000000000AE
:10540000000000000000000000000000000000009C
:10541000000000000000000000000000000000008C
:105420000000000000000000000003C003C003C033
:10543000000000000000000000000000000000006C
:1054400000000000001800380030006000E000C0DC
:1054500001C001800300030006000E000C001C00C8
:1054600018003000000000000000000000000000F4
:105470000000000001800FF01C38381C301C707ECA
:1054800070EE738E7E0E7C0C300C381C1E780FE094
:10549000000000000000000000000000000000000C
:1054A00000000000000007C01FC039C001C001C0DB
:1054B00001C001C001C001C001C001C03FFC3FFCF0
:1054C00000000000000000000000000000000000DC
:1054D0000000000003801FF0183800380018003862
:1054E0000038007001E0038007001C003FFC3FFC17
:1054F00000000000000000000000000000000000AC
:105500000000000007801FF000380038003800302D
:1055100007E007F00038001C001C001820F83FE0EE
:10552000000000000000000000000000000000007B
:1055300000000000000000F001B0033007300E3022
:105540001C30383070307FFE7FFE0030003000307D
:10555000000000000000000000000000000000004B
:105560000000000000001FF81800180018001800C4
:105570001FE000F8001C001C001C003800F01FC0D9
:10558000000000000000000000000000000000001B
:1055900000000000000003F80F001C00180030009D
:1055A00037F83C3C300C300C380C381C1E380FF0EF
:1055B00000000000000000000000000000000000EB
:1055C0000000000000003FFC001C001800380070C4
:1055D000006000E001C001800380070006000E00AB
:1055E00000000000000000000000000000000000BB
:1055F0000000000003C01FF8381C381C381C1C3881
:105600000FF007F01C78381C300C381C3C380FF0B9
:10561000000000000000000000000000000000008A
:105620000000000003801FF03838301C701C700C24
:10563000380C1FFC0FCC001C001800701FE01F80EE
:10564000000000000000000000000000000000005A
:1056500000000000000000000000000003C003C0C4
:105660000180000000000000000003C003C003C070
:10567000000000000000000000000000000000002A
:1056800000000000000000000000000003C003C094
:105690000180000000000000000003C003C001C042
:1056A00001C003800F0000000000000000000000A7
:1056B00000000000000000000000003800F001C001
:1056C00007001E0038000E00078001C00070003087
:1056D00000000000000000000000000000000000CA
:1056E00000000000000000000000000000000000BA
:1056F0003FFC000000003FFC3FFC000000000000F9
:105700000000000000000000000000000000000099
:10571000000000000000000000001C000F000380DB
:1057200001E00078001C007001E003800E000C0016
:105730000000000000000000000000000000000069
:10574000000000000FC000F00038003800380038BA
:1057500003F00380030003000000000007800780BF
:105760000000000000000000000000000000000039
:10577000000000E007F80C0C18063006700363F315
:105780006633C673CC63CC62CC66CCE6C7FCE00063
:105790006000700038101FF00000000000000000E2
:1057A00000000000000003C007E006E00E700E706D
:1057B0000C301C3818183FFC3FFC700E600EE007E0
:1057C00000000000000000000000000000000000D9
:1057D0000000000000003FF03838381C381C383812
:1057E0003FF03FF8381C380C380C381C3FF83FE0CD
:1057F00000000000000000000000000000000000A9
:105800000000000000E007FC1E04380038003000F3
:10581000700070007000300038003C001F9C07FCD6
:105820000000000000000000000000000000000078
:105830000000000000003FF03078301C300C300ECB
:10584000300E300E300E300E301C30383FF03FC07E
:105850000000000000000000000000000000000048
:105860000000000000001FF81800180018001800C1
:105870001FF81FF818001800180018001FF81FF86C
:105880000000000000000000000000000000000018
:105890000000000000001FF8180018001800180091
:1058A0001FF81FF81800180018001800180018003A
:1058B00000000000000000000000000000000000E8
:1058C0000000000000F007FC1E04380030007000EB
:1058D000700070FC700C700C300C380C1F1C07FC36
:1058E00000000000000000000000000000000000B8
:1058F000000000000000300C300C300C300C300C7C
:105900003FFC3FFC300C300C300C300C300C300CB9
:105910000000000000000000000000000000000087
:105920000000000000003FFC018001800180018038
:105930000180018001800180018001803FFC3FFCEB
:105940000000000000000000000000000000000057
:105950000000000000001FF0003000300030003078
:105960000030003000300030003000701DE01FC0FB
:105970000000000000000000000000000000000027
:10598000000000000000381C387038E039C03B804F
:105990003F003F003B8039C038E038703838381C51
:1059A00000000000000000000000000000000000F7
:1059B0000000000000001C001C001C001C001C005B
:1059C0001C001C001C001C001C001C001FFC1FFCF9
:1059D00000000000000000000000000000000000C7
:1059E000000000000000381C7C3C6C3E6E6E666E51
:1059F00066CE63C6638661866006600660066006E2
:105A00000000000000000000000000000000000096
:105A10000000000000003C0C3C0C3E0C360C330C2B
:105A2000338C318C31CC30EC306C307C303C301CE1
:105A30000000000000000000000000000000000066
:105A40000000000001C00FF81C3C381C700E700EE6
:105A500060066006700E700E700C381C1E780FE029
:105A60000000000000000000000000000000000036
:105A70000000000000003FF0383C381C380C380CA7
:105A8000381C38783FE038003800380038003800DB
:105A90000000000000000000000000000000000006
:105AA0000000000001C00FF81C3C381C700E700E86
:105AB00060066006700E700E700C381C1E780FE0C9
:105AC000018001C000FF003C000000000000000059
:105AD0000000000000003FF0383838183818383817
