:020000040800F2
:1000000068080020FD2400089D0500089F050008E1
:10001000A3050008A7050008AB05000800000000C4
:10002000000000000000000000000000AF05000814
:10003000B105000800000000B3050008B505000880
:1000400017250008172500081725000817250008A0
:100050001725000817250008CF0A0008E30A000842
:10006000F70A00080B0B00081725000817250008E1
:100070001725000817250008172500081725000870
:100080001725000817250008172500081725000860
:100090001725000817250008172500081725000850
:1000A00017250008B32300081725000817250008A6
:1000B0001725000817250008172500081725000830
:1000C0001725000817250008172500081725000820
:1000D000172500089B210008172500081725000890
:1000E0001725000817250008172500081725000800
:1000F00017250008172500081725000817250008F0
:1001000017250008172500081725000817250008DF
:1001100017250008172500081725000817250008CF
:1001200017250008172500081725000817250008BF
:1001300000F002F800F05AF80AA090E8000C82449F
:100140008344AAF10107DA4501D100F04FF8AFF27C
:10015000090EBAE80F0013F0010F18BFFB1A43F0A5
:10016000010318471C8000003C8000000A444FF047
:10017000000C10F8013B13F0070408BF10F8014B06
:100180001D1108BF10F8015B641E05D010F8016B4B
:10019000641E01F8016BF9D113F0080F1EBF10F8AF
:1001A000014BAD1C0C1B09D16D1E58BF01F801CBD2
:1001B000FAD505E014F8016B01F8016B6D1EF9D555
:1001C0009142D6D37047000000230024002500266A
:1001D000103A28BF78C1FBD8520728BF30C148BFAA
:1001E0000B6070471FB51FBD10B510BD03F039FF80
:1001F0001146FFF7F7FF00F058F803F057FF03B47C
:10020000FFF7F2FF03BC01F06DFF00000EB5002008
:1002100010214FF6FF724FF47843CDE90021029090
:1002200051A2014601F068FC002010214FF6FF7238
:100230004FF47843CDE9002102904FA201F05CFC1D
:10024000002010214FF6FF724FF47843CDE90021D2
:1002500002904DA2202101F04FFC002010214FF60A
:10026000FF724FF47843CDE90021029049A230217A
:1002700001F042FC002010214FF6FF724FF478434A
:10028000CDE90021029046A2402101F035FC00207A
:1002900010214FF6FF724FF47843CDE90021029010
:1002A00042A2502101F028FC0EBD08B5022002F048
:1002B000C9FE01F0ADFE4FF4E13001F022FF01F084
:1002C000A7FD4FF6FF70A023802200210090084672
:1002D00000F0AEFFFFF79AFF00F0DBFB4FF4E151B7
:1002E000642002F039F800F094FF3BE000F074FF66
:1002F000314908700846007810282CD2DFE800F059
:10030000080B140E1A2817112027292A1D2B232623
:1003100000F07BFC22E000F05CFC1FE000F059FCE8
:100320001CE000F056FC19E000F0F9FB16E000F0CC
:10033000F6FB13E000F0F3FB10E000F02DFC0DE005
:1003400000F02AFC0AE000F027FC07E006E005E0E8
:1003500004E003E002E000F0E2FB00BF00BF002089
:1003600015490870C2E7000056313A202020205677
:10037000323A20202020000056333A2020202056F8
:10038000343A2020202000005049444F55543A2050
:10039000202000005049444F5554313A202020007D
:1003A0005049444F5554323A202020005049444F80
:1003B0005554333A20202000000000200CB50020C6
:1003C000019000906C48006840F480306A490860F1
:1003D00000BF6948006800F4003000900198401C9C
:1003E0000190009818B90198B0F5A06FF1D162485A
:1003F000006800F4003010B10120009001E00020FE
:1004000000900098012843D15C48006840F010003B
:100410005A4908600846006820F003000860084652
:10042000006840F002000860534840685249486044
:100430000846406848600846406840F4806048606C
:100440000846406820F47C1048600846406840F444
:10045000E81048600846006840F08070086000BFFF
:100460004548006800F000700028F9D04248406814
:1004700020F00300404948600846406840F0020010
:10048000486000BF3C48406800F00C000828F9D1E3
:100490000CBD10B5FFF792FF10BD10B536480068CF
:1004A00040F001003449086008464068344908407B
:1004B0003149486008460068324908402E490860C2
:1004C0000846006820F4802008600846406820F450
:1004D000FE0048604FF41F008860FFF7DAFF4FF01E
:1004E00000602949086010BD10B5002100200022DD
:1004F000214B5B6803F00C0121B1042906D00829C7
:1005000028D107E0214B224C236027E01F4B204CD1
:10051000236023E0184B5B6803F47010164B5B6894
:1005200003F48032022303EB904022B9194B43437A
:10053000174C23600DE0104B5B6803F4003323B1CC
:10054000144B4343124C236003E0104B4343104CC5
:10055000236003E00D4B0E4C236000BF00BF064B31
:100560005B68C3F303130C4CE15C094B1B68CB4085
:10057000074C236010BD0000001002400020024024
:100580000000FFF8FFFFF6FE08ED00E000127A0021
:100590000400002000093D0008000020704700BF53
:1005A000FEE700BFFEE700BFFEE700BFFEE77047C3
:1005B000704770477047000030B589B005460C465B
:1005C0000121022002F0E3FA01210C2002F0D2FA0C
:1005D0004020ADF8200018208DF8230003208DF86E
:1005E000220008A9FE4802F009F80120ADF8200019
:1005F00010208DF8230003208DF8220008A9F94867
:1006000001F0FCFF0121F74802F0A7F80220ADF845
:10061000200010208DF8230003208DF8220008A967
:10062000F04801F0EBFF0221EE4802F096F8ADF839
:100630001850ADF814400020ADF81A00ADF81600BF
:1006400005A9E94802F040FE7020ADF80400012041
:10065000ADF806000020ADF80C004FF46170ADF865
:100660000A0001A9E04802F06CFE0821DE4803F010
:10067000B7FA0121DC4803F083F909B030BD30B589
:1006800089B005460C460121022002F080FA0121C2
:10069000042002F06FFA8020ADF8200018208DF8B9
:1006A000230003208DF8220008A9CD4801F0A6FF01
:1006B0001020ADF820008DF8230003208DF82200D3
:1006C00008A9C74801F09AFF1021C54802F045F873
:1006D0002020ADF8200010208DF8230003208DF895
:1006E000220008A9BE4801F089FF2021BC4802F081
:1006F00034F8ADF81850ADF814400020ADF81A00E9
:10070000ADF8160005A9B84802F0DEFD7020ADF87E
:1007100004000120ADF806000020ADF80C004FF4F5
:100720006170ADF80A0001A9AF4802F04CFE082143
:10073000AD4803F05EFA0121AB4803F021F909B09E
:1007400030BD30B589B005460C460121042002F0C9
:100750001EFA0121192002F00DFA4020ADF8200008
:1007600018208DF8230003208DF8220008A99D4849
:1007700001F044FF4FF40050ADF8200010208DF838
:10078000230003208DF8220008A9984801F036FFC5
:100790004FF40051954801F0E0FF2020ADF8200013
:1007A00010208DF8230003208DF8220008A98D4821
:1007B00001F024FF20218B4801F0CFFFADF8185045
:1007C000ADF814400020ADF81A00ADF8160005A9E8
:1007D000874802F079FD7020ADF804000120ADF8E3
:1007E00006000020ADF80C004FF46170ADF80A006F
:1007F00001A97F4802F0A5FD08217D4803F0F0F92A
:1008000001217B4803F0BCF809B030BD30B589B098
:1008100005460C460121042002F0B9F90121082007
:1008200002F0A8F98020ADF8200018208DF82300F0
:1008300003208DF8220008A96A4801F0DFFE4FF47A
:100840008070ADF8200010208DF8230003208DF873
:10085000220008A9634801F0D1FE4FF4807161487D
:1008600001F07BFF4FF40070ADF8200010208DF8F0
:10087000230003208DF8220008A95A4801F0BEFE8B
:100880004FF40071574801F068FFADF81850ADF80B
:1008900014400020ADF81A00ADF8160005A9544820
:1008A00002F012FD7020ADF804000120ADF8060042
:1008B0000020ADF80C004FF46170ADF80A0001A9FA
:1008C0004B4802F080FD0821494803F092F90121CC
:1008D000474803F055F809B030BD1FB5012108465F
:1008E00002F048F90121042002F044F90120ADF89A
:1008F0000C0048208DF80F0003A9394801F07EFE56
:100900000021084601F090FF0120019000208DF8A1
:10091000080010208DF8090001208DF80A0001A8B8
:1009200003F01AFB06208DF8000001208DF801006D
:1009300000208DF8020001208DF80300684602F0C7
:1009400086FB1FBD1FB50121084602F013F90121E6
:10095000042002F00FF90220ADF80C0048208DF8B9
:100960000F0003A91E4801F049FE0121002001F0FB
:100970005BFF0220019000208DF8080010208DF808
:10098000090001208DF80A0001A803F0E5FA07200C
:100990008DF8000001208DF801008DF802008DF81F
:1009A0000300684602F053FB1FBD1FB50121084636
:1009B00002F0E0F80121042002F0DCF80420ADF898
:1009C0000C0048208DF80F0003A9054801F016FE21
:1009D0000221002001F028FF04200190002009E0FE
:1009E00000080140000C01400004004000100140DC
:1009F000000800408DF8080010208DF80900012043
:100A00008DF80A0001A803F0A7FA08208DF800006D
:100A100002208DF8010000208DF8020001208DF8E1
:100A20000300684602F013FB1FBD1FB501210846F5
:100A300002F0A0F80121042002F09CF80820ADF893
:100A40000C0048208DF80F0003A98C4801F0D6FD5A
:100A50000321002001F0E8FE0820019000208DF81D
:100A6000080010208DF8090001208DF80A0001A867
:100A700003F072FA09208DF8000002208DF80100C1
:100A800001208DF802008DF80300684602F0DFFABD
:100A90001FBD10B5FFF721FFFFF754FFFFF785FFDC
:100AA000FFF7C3FF022140F2E730FFF785FD022187
:100AB00040F2E730FFF7E3FD022140F2E730FFF7B5
:100AC00040FE022140F2E730FFF7A0FE10BD10B556
:100AD0006B480088401C6A490880012003F0B3FA83
:100AE00010BD10B567480088401C66490880022088
:100AF00003F0A9FA10BD10B563480088401C624994
:100B00000880042003F09FFA10BD10B55F480088EC
:100B1000401C5E490880082003F095FA10BD10B50E
:100B200001205B49086000205A49C1F88401012076
:100B3000594908600020091D0860012054492031EE
:100B400008600020091D0860012054490860002049
:100B50005049C1F894010A2001F097FA10BD10B570
:100B600000204B49086001204A49C1F88401002057
:100B7000494908600120091D0860002044492031CE
:100B80000860091D0860454908604249C1F89401A0
:100B90000A2001F07AFA10BD10B501203C4920313D
:100BA000086000203B49C1F8A40101203B490860CE
:100BB000002037491431086035490860091D086074
:100BC000354908603649C1F894010A2001F05DFA00
:100BD00010BD10B501202E49086000202D49C1F834
:100BE000840101202C4908600020091D0860284963
:100BF00020310860091D0860284908602549C1F8AE
:100C000094010A2001F041FA10BD10B54FF47A7139
:100C1000244803F04DF94FF47A71224803F04AF961
:100C20004FF47A71204803F043F94FF47A711E486B
:100C300003F040F90A2001F028FA10BD2DE9F04137
:100C400004460D4616461F46C4F57A7081B2154813
:100C500003F02EF9C5F57A7081B2124803F02AF933
:100C6000C6F57A7081B2104803F022F9C7F57A70A0
:100C700081B20D4803F01EF9BDE8F0810008014083
:100C8000380000203A0000203C0000203E000020F8
:100C9000808121420080214290012142B401224200
:100CA0000000214200040040000800402DE9F84FF8
:100CB00082468B4617469846EF480168504603F037
:100CC00050FDEE49086008460168ED48006803F0F1
:100CD0006DFBEB490860E9480068EA49086008468E
:100CE0000168E648006803F047FD8146E64948464A
:100CF00003F006FD01D2DFF89093E449484603F083
:100D0000FFFB01D2DFF88493DC480168E04800680B
:100D100003F02AFCDF490860D9480168DE48006812
:100D200003F022FCDD490860DD480168DB4800680B
:100D300003F0E6FC03D2DA480068D8490860D948D5
:100D40000168D648006803F0DBFB03D2D548006891
:100D5000D24908604946D448006803F005FCD349ED
:100D60000860CE480168CB48006803F01FFB009084
:100D7000CE480168009803F019FBCD490860CD48C2
:100D80000168CB48006803F0BBFC03D8C948006881
:100D9000C7490860C8480168C548006803F0B0FB4F
:100DA00003D8C5480068C24908605946C34800686E
:100DB00003F0E2FCC249086008460168C1480068C7
:100DC00003F0F4FABF490860BD480068BE490860F6
:100DD00008460168BA48006803F0CEFC0446AA49F8
:100DE000204603F08DFC00D2A74CA849204603F012
:100DF00087FB00D2A54CB2480168A548006803F003
:100E0000B3FBB2490860AF480168A348006803F02B
:100E1000ABFBAF490860AF480168AD48006803F01C
:100E20006FFC03D2AB480068A9490860AA48016872
:100E3000A748006803F064FB03D2A7480068A449F0
:100E4000086021469848006803F08EFBA3490860BB
:100E50009F4801689D48006803F0A8FA00909F48E9
:100E60000168009803F0A2FA9D4908609D48016856
:100E70009B48006803F044FC03D89A4800689849EE
:100E80000860994801689648006803F039FB03D868
:100E9000954800689249086039469448006803F014
:100EA0006BFC93490860084601689248006803F0AB
:100EB0007DFA904908608E4800688F4908600846AE
:100EC00001688B48006803F057FC05466E492846C8
:100ED00003F016FC00D26C4D6C49284603F010FB61
:100EE00000D26A4D824801686948006803F03CFB03
:100EF000824908607F4801686748006803F034FB56
:100F00007F4908607F4801687D48006803F0F8FB6E
:100F100003D27C4800687A4908607B4801687848B9
:100F2000006803F0EDFA03D277480068744908605E
:100F300029465D48006803F017FB74490860704853
:100F400001686E48006803F031FA00906F4801684C
:100F5000009803F02BFA6E4908606E4801686C48EF
:100F6000006803F0CDFB03D86A4800686849086050
:100F7000694801686648006803F0C2FA03D8664809
:100F800000686349086041466448006803F0F4FB68
:100F900063490860084601686248006803F006FA81
:100FA000604908605E4800685F490860084601685B
:100FB0005B48006803F0E0FB06463349304603F027
:100FC0009FFB00D2304E3149304603F099FA00D2EF
:100FD0002E4E534801682E48006803F0C5FA534965
:100FE0000860504801682C48006803F0BDFA504979
:100FF0000860504801684E48006803F081FB03D246
:101000004C4800684A4908604B48016848480068F5
:1010100003F076FA03D24848006845490860314633
:101020002148006803F0A0FA44490860404801687C
:101030003E48006803F0BAF9009040480168009803
:1010400003F0B4F93E4908603E4801683C48006836
:1010500003F056FB03D83B480068394908603A481A
:1010600001683748006803F04BFA03D83648006837
:1010700033490860BDE8F88F4C0000206400002070
:101080006C0000206800002000002041000020C10A
:101090004000002058000020440000205C00002098
:1010A0007000002074000020480000206000002034
:1010B00050000020780000207C00002080000020EC
:1010C00098000020A00000209C0000208C00002040
:1010D00090000020A4000020A80000209400002020
:1010E00084000020AC000020B0000020B4000020EC
:1010F000CC000020D4000020D0000020C000002040
:10110000C4000020D8000020DC000020C80000201F
:10111000B8000020E0000020E4000020E8000020EB
:10112000000100200801002004010020F40000203C
:10113000F80000200C01002010010020FC0000201D
:10114000EC000020140100201801002008B5012146
:10115000042001F00FFD4FF41940ADF80000042009
:101160008DF8030003208DF8020069462C4801F039
:1011700045FA08BD08B501210D2001F0FBFC012155
:10118000284801F00CFB4FF4C060ADF800000420CB
:101190008DF8030003208DF802006946204801F015
:1011A0002DFA0820ADF8000004208DF8030003207C
:1011B0008DF8020069461C4801F020FA1020ADF8B5
:1011C000000004208DF8030003208DF8020069461A
:1011D000154801F013FA08BD0020144909680129D7
:1011E00001D140F0080011490C390968012901D1E9
:1011F00040F004000D4910390968012901D140F07F
:1012000002000A491C390968012901D140F0010096
:10121000704710B5FFF79AFFFFF7ACFF10BD000055
:101220000008014000023000000C01403C01214256
:101230002DE9F04706460F4614461D46DDF820A06E
:10124000681E83B2601E82B23946304600F0BFFD90
:10125000B8460EE0B14606E0504600F09FFD09F1A9
:1012600001001FFA80F9A145F6DB08F101001FFA21
:1012700080F8A845EEDBBDE8F08770B504460D4662
:1012800016462B4622462946204600F0A0FD304651
:1012900000F084FD70BD2DE9FF4F85B081468A4680
:1012A0000020039083460798A0EB09050898A0EB5F
:1012B0000A06CDF80890CDF804A0002D01DD012725
:1012C00005E00DB9002702E04FF0FF376D42002E18
:1012D00002DD4FF0010806E016B94FF0000802E009
:1012E0004FF0FF387642B54201DD2C4600E034462F
:1012F000002004901EE0019A91B2029A90B2129AD4
:10130000FFF7BBFF039828440390B3440398A0421F
:1013100005DD0398001B0390029838440290A34512
:1013200004DDABEB040B0198404401900498401C91
:1013300080B20490611C04988842DCDB09B0BDE8EF
:10134000F08F2DE9F84305460E4617469846089C4F
:1013500033463A46314628460094FFF79CFF434601
:101360002A46314628460094FFF795FF43463A4601
:10137000414628460094FFF78EFF43463A463146E1
:1013800038460094FFF787FFBDE8F8832DE9F04762
:1013900006460F46904699460025444641E07A1B92
:1013A00091B2321B90B24A46FFF767FF7A1B91B2A7
:1013B000321990B24A46FFF760FF3A1991B2721B98
:1013C00090B24A46FFF759FF3A1B91B2721B90B296
:1013D0004A46FFF752FF7A1991B2321990B24A4643
:1013E000FFF74BFF3A1B91B2721990B24A46FFF7D2
:1013F00044FF3A1991B2721990B24A46FFF73DFF85
:101400007A1991B2321B90B24A46FFF736FF6D1C33
:1014100005FB05F004FB040108FB08F0814200DD38
:10142000641EA542BBDDBDE8F0872DE9FF5F0646DF
:10143000894692469B460F9C0020039000962046CA
:10144000E21704EB5272D2102146E31704EB5373F8
:10145000DB10A4EBC3030BB1012300E000231A440B
:10146000624392B2019205200290002571E005EBE3
:101470008510FA4911F810009AF80010884265D1D9
:1014800005EB8510F54901EB400040789AF8011012
:1014900088425BD109EB0400401E83B23019401E24
:1014A00082B24946304600F092FC00274BE04FF0F4
:1014B000000842E01098F8B905EB8510E74901EB08
:1014C0004000801CC05D012101FA08F1084018B1FC
:1014D000584600F063FC02E00E9800F05FFC0398B1
:1014E000401CC0B20390039890FBF4F104FB110080
:1014F000F8B90020039023E005EB8510D74901EBF4
:101500004000801CC05D012101FA08F1084020B1B3
:101510005A4649463046FFF7B0FE701C86B2009826
:10152000301AA04205D1009E09F101001FFA80F98E
:1015300006E008F1010000F0FF08B8F1080FB9DB80
:1015400000BF781CC7B201988742B0DB00BF681C9F
:1015500085B2029885428ADBBDE8FF9F2DE9FF5FD7
:101560000646894692469B460F9C002003900096B3
:101570002046E21704EB5272D2102146E31704EB27
:101580005373DB10A4EBC3030BB1012300E0002372
:101590001A44624392B2019205200290002579E03C
:1015A00005EB850000EB4510AD4911F810009AF8E5
:1015B000001088426BD105EB850000EB4510A8496F
:1015C00001EB400040789AF8011088425FD109EBA6
:1015D0000400401E83B23019401E82B24946304694
:1015E00000F0F5FB00274FE04FF0000846E01098B0
:1015F00008BB05EB850000EB4510994901EB400065
:10160000801CC05D012101FA08F1084018B158465C
:1016100000F0C4FB02E00E9800F0C0FB0398401CF1
:10162000C0B20390039890FBF4F104FB110008BBD7
:101630000020039025E005EB850000EB451088496C
:1016400001EB4000801CC05D012101FA08F1084057
:1016500020B15A4649463046FFF70FFE701C86B24D
:101660000098301AA04205D1009E09F101001FFA2E
:1016700080F906E008F1010000F0FF08B8F1080F5A
:10168000B5DB00BF781CC7B201988742ACDB00BF56
:10169000681C85B20298854282DBBDE8FF9F2DE978
:1016A000FF5F0646894692469B460F9C00200390AA
:1016B00000962046E21704EB5272D2102146E3173F
:1016C00004EB5373DB10A4EBC3030BB1012300E065
:1016D00000231A44624392B2019205200290002531
:1016E00071E005EB05105F4911F810009AF8001041
:1016F000884265D105EB05105A4901EB400040785E
:101700009AF8011088425BD109EB0400401E83B2B5
:101710003019401E82B24946304600F058FB00277F
:101720004BE04FF0000842E01098F8B905EB0510C7
:101730004C4901EB4000801CC05D012101FA08F119
:10174000084018B1584600F029FB02E00E9800F05E
:1017500025FB0398401CC0B20390039890FBF4F162
:1017600004FB1100F8B90020039023E005EB0510FD
:101770003C4901EB4000801CC05D012101FA08F1E9
:10178000084020B15A4649463046FFF776FD701CA6
:1017900086B20098301AA04205D1009E09F10100DE
:1017A0001FFA80F906E008F1010000F0FF08B8F127
:1017B000080FB9DB00BF781CC7B201988742B0DBC5
:1017C00000BF681C85B2029885428ADBBDE8FF9F96
:1017D0002DE9FF5F0646894692469B460F9C0020F6
:1017E000039000962046E21704EB5272D210214675
:1017F000E31704EB5373DB10A4EBC3030BB101231A
:1018000000E000231A44624392B201920520029044
:10181000002581E005EB850000EBC500124911F8B9
:1018200010009AF80010884273D105EB850000EB98
:10183000C5000D4901EB400040789AF8011088423C
:1018400067D109EB0400401E83B23019401E82B2FA
:101850004946304600F0BBFA002757E0F47E000806
:10186000827D0008D87C0008567C00084FF00008F4
:1018700046E0109808BB05EB850000EBC500FE496B
:1018800001EB4000801CC05D012101FA08F1084015
:1018900018B1584600F082FA02E00E9800F07EFA85
:1018A0000398401CC0B20390039890FBF4F104FB32
:1018B000110008BB0020039025E005EB850000EB3C
:1018C000C500ED4901EB4000801CC05D012101FA1B
:1018D00008F1084020B15A4649463046FFF7CDFC92
:1018E000701C86B20098301AA04205D1009E09F102
:1018F00001001FFA80F906E008F1010000F0FF087E
:10190000B8F1080FB5DB00BF781CC7B20198874259
:10191000ACDB00BF681C85B202988542FFF67AAF47
:10192000BDE8FF9F2DE9FE4F8046894617469A463F
:10193000DDE90D460C9D36E00C2C09D153463A46A4
:1019400049464046CDE901460095FFF741FF25E0B5
:10195000102C09D153463A4649464046CDE9014646
:101960000095FFF79CFE19E0182C09D153463A4622
:1019700049464046CDE901460095FFF7EFFD0DE0F1
:10198000202C09D153463A4649464046CDE9014606
:101990000095FFF74AFD01E0BDE8FE8FBF1C08EB94
:1019A00004001FFA80F838780028C5D100BFF3E79B
:1019B0002DE9FF5F80468A4617469B460F9D002013
:1019C0000290CDF80080284605EBD071C1F34704A2
:1019D0002046E21704EB5272D2102146E31704EBC3
:1019E0005373DB10A4EBC3030BB1012300E000230E
:1019F0001A446A4392B20192A7F12000C7B20AEBDF
:101A00000500401E83B208EB0400401E82B251461E
:101A1000404600F0DCF9002669E00C2D07D107EB09
:101A20004700964901EB8000805D03901BE0102D7C
:101A300005D1934800EB0710805D039013E0182D4B
:101A400007D107EB47008F4901EB0010805D039041
:101A500009E0202D05D18C4800EB8710805D0390B4
:101A600001E0BDE8FF9F4FF000093AE01098C8B9C7
:101A7000012000FA09F00399084018B1584600F017
:101A80008DF902E00E9800F089F90298401CC0B26E
:101A90000290029890FBF4F104FB1100E8B90020D9
:101AA000029021E0012000FA09F00399084020B1DA
:101AB0005A4651464046FFF7E0FB08F101001FFA85
:101AC00080F80098A8EB0000A04206D1DDF8008065
:101AD0000AF101001FFA80FA06E009F1010000F0A6
:101AE000FF09B9F1080FC1DB00BF701C86B2019875
:101AF000864292DB00BFB4E72DE9FE4F06460F4653
:101B000014469846DDE90D5ADDF8309010E0CDE935
:101B1000015ACDF800902278434639463046FFF707
:101B200047FF284605EBD07106EB61018EB2641CBD
:101B300020780028EBD1BDE8FE8F10B502460120C9
:101B400000E050430B1EA1F10104E1B2F9D110BD38
:101B50002DE9FF4F85B0074691461D46DDE913A6E6
:101B600000200490304606EBD071C1F3470B0024EF
:101B700034E0281B401EC1B20A20FFF7DEFFB9FB8C
:101B8000F0F00A21B0FBF1F201FB12080498A0B9B1
:101B9000681EA04211DDB8F1000F0CD1002004FB3B
:101BA0000B71CDE900A6029088B22022129B069903
:101BB000FFF7FEFE10E001200490002008F1300144
:101BC000CAB204FB0B71CDE900A6029088B2129B49
:101BD0000699FFF7EDFE00BF601CC4B2AC42C8DB43
:101BE00009B0BDE8F08F2DE9FF4F85B0074690465C
:101BF0001C46DDE91396304606EBD071C1F3470B66
:101C00002249404602F0B0FC039002F059FC80B239
:101C1000049000253EE0601B401EC1B20A20FFF781
:101C20008CFF0499B1FBF0F00A21B0FBF1F201FB4B
:101C3000120AA01EA84210D10020A11E01FB0B71A8
:101C4000CDE90096029088B22E22129B0699FFF7EA
:101C5000AFFE681CC5B2601CC4B200200AF130019E
:101C6000CAB205FB0B71CDE90096029088B2129BB7
:101C70000699FFF79DFE0BE0567C000862480008BD
:101C8000D64C0008C6520008966400080000C842FE
:101C9000681CC5B2A542BEDB09B0BDE8F08F2DE9D6
:101CA000F05F0746884615461E46DDF8289000245A
:101CB00008EB0600401E83B27819401E82B24146EE
:101CC000384600F084F8A24618E04FF0000B0FE011
:101CD00019F8140000F05CF8012101EB440119F837
:101CE000010000F055F8641C0BF101001FFA80FBA5
:101CF000B345EDDB0AF101001FFA80FAAA45E4DBE7
:101D0000BDE8F09F08B50121082000F033FF4FF433
:101D10007C40ADF8000010208DF8030003208DF802
:101D200002006946B94800F069FC4FF47C41B748AD
:101D300000F011FD08BD70B504464FF48041B34872
:101D400000F00BFD00251BE04FF48061AF4800F070
:101D500004FD04F0800028B14FF40061AB4800F0AE
:101D6000FAFC04E04FF40061A84800F0F6FC4FF4E0
:101D70008061A64800F0EFFC6006040E681CC5B246
:101D8000082DE1DB4FF48041A04800F0E4FC70BD79
:101D900010B504462046FFF7CEFF10BD10B504462F
:101DA0002012FFF7C8FFE0B2FFF7C5FF10BD10B566
:101DB00004464FF40051954800F0CFFC2046FFF751
:101DC000BAFF4FF40051914800F0C5FC10BD2DE959
:101DD000F04104460D4616461F462A20FFF7E7FF4E
:101DE000A11C88B2FFF7DAFFB11C88B2FFF7D6FF5B
:101DF0002B20FFF7DCFF691C88B2FFF7CFFF791CAF
:101E000088B2FFF7CBFF2C20FFF7D1FFBDE8F081B0
:101E100010B5FFF777FF4FF480517C4800F09DFC30
:101E2000642000F032F94FF48051784800F093FCC0
:101E3000642000F02AF94FF40041744800F08BFC54
:101E4000642000F022F91120FFF7B1FF782000F0A4
:101E50001CF9B120FFF7ABFF0520FFF799FF3C20ED
:101E6000FFF796FF3C20FFF793FFB220FFF79FFF9D
:101E70000520FFF78DFF3C20FFF78AFF3C20FFF78E
:101E800087FFB320FFF793FF0520FFF781FF3C207A
:101E9000FFF77EFF3C20FFF77BFF0520FFF778FF71
:101EA0003C20FFF775FF3C20FFF772FFB420FFF7DF
:101EB0007EFF0320FFF76CFFC020FFF778FF28208C
:101EC000FFF766FF0820FFF763FF0420FFF760FFBE
:101ED000C120FFF76CFFC020FFF75AFFC220FFF7B9
:101EE00066FF0D20FFF754FF0020FFF751FFC320CE
:101EF000FFF75DFF8D20FFF74BFF2A20FFF748FF1C
:101F0000C420FFF754FF8D20FFF742FFEE20FFF7BC
:101F10003FFFC520FFF74BFF1A20FFF739FF3620A0
:101F2000FFF745FFC020FFF733FFE020FFF73FFF3B
:101F30000420FFF72DFF2220FFF72AFF0720FFF7DD
:101F400027FF0A20FFF724FF2E20FFF721FF302074
:101F5000FFF71EFF2520FFF71BFF2A20FFF718FFC2
:101F60002820FFF715FF2620FFF712FF2E20FFF78E
:101F70000FFF3A20FFF70CFF0020FFF709FF0120B9
:101F8000FFF706FF0320FFF703FF1320FFF700FF13
:101F9000E120FFF70CFF0420FFF7FAFE1620FFF701
:101FA000F7FE0620FFF7F4FE0D20FFF7F1FE2D20CF
:101FB000FFF7EEFE2620FFF7EBFE2320FFF7E8FEFB
:101FC0002720FFF7E5FE2720FFF7E2FE2520FFF799
:101FD000DFFE2D20FFF7DCFE3B20FFF7D9FE0020BF
:101FE000FFF7D6FE0120FFF7D3FE0420FFF7D0FE57
:101FF0001320FFF7CDFE3A20FFF7D9FE0520FFF7AB
:10200000C7FE2920FFF7D3FE10BD0000000C0140E1
:1020100010B56FF0040001F064F82E4800682E49F6
:10202000B0FBF1F02D4908700846007800EB400144
:10203000C1EBC0104FF6FF7101EAC00028490880CB
:1020400010BD0146254A12784A434FF0E0235A61F9
:1020500000229A611A46126942F001021A6100BF19
:102060004FF0E022106900F001021AB100F4803252
:10207000002AF5D04FF0E022126922F001024FF061
:10208000E0231A6100229A6170470146144A1288BF
:102090004A434FF0E0235A6100229A611A461269BE
:1020A00042F001021A6100BF4FF0E022106900F017
:1020B00001021AB100F48032002AF5D04FF0E0227C
:1020C000126922F001024FF0E0231A6100229A61A6
:1020D000704700000400002000127A001C0100205C
:1020E0001E010020014600BF704700BF494A128808
:1020F00002F04002002AF9D0C2B2464B1B1D1A80E2
:10210000704710B586B00446012144F2040000F087
:1021100031FD4FF40070ADF8140003208DF8160067
:1021200018208DF8170005A93B4800F067FA4FF416
:102130008060ADF8140004208DF8170005A936481A
:1021400000F05CFA25208DF8000003208DF80100D6
:102150008DF8020001208DF80300684600F077FF3B
:1021600001940020ADF80800ADF80A00ADF80C00AD
:10217000ADF810000C20ADF80E0001A9254800F0C4
:10218000A0FD012240F22551224800F032FE01213B
:10219000204800F022FE06B010BD10B540F22551D7
:1021A0001C4800F00BFF10B31A4800F087FEC4B2C1
:1021B0001A48008800F40040C8B91848008800F4A4
:1021C000804060B1212C03D000201449088020E019
:1021D0001248008840F400401049088019E03A2C69
:1021E00006D10E48008840F480400C49088010E079
:1021F0000A480088C0F30D0009490C5407480088BC
:10220000401C0649088008460088C72801DD0020D8
:10221000088010BD00380140000801402401002062
:102220003C0100203EB5A64903C901F07FFF84B2FE
:1022300010204FF6FF714FF478420323CDE90021BF
:102240000290224600211A20FFF782FC9D4903C913
:1022500001F06CFF84B210204FF6FF714FF478420A
:102260000323CDE900210290224600215220FFF7EE
:102270006FFC954903C901F059FF84B210204FF655
:10228000FF714FF478420323CDE9002102902246EA
:1022900001461A20FFF75CFC8C4903C901F046FF98
:1022A00084B210204FF6FF714FF478420323CDE93A
:1022B00000210290224601465220FFF749FC844843
:1022C000006802F0E1F884B210204FF6FF714FF47D
:1022D00078420323CDE900210290224620214020AC
:1022E000FFF736FC7B48006802F0CEF884B210207D
:1022F0004FF6FF714FF478420323CDE9002102909D
:10230000224630214020FFF723FC7348006802F08A
:10231000BBF884B210204FF6FF714FF478420323CC
:10232000CDE900210290224640210846FFF710FC2B
:102330006A48006802F0A8F884B210204FF6FF71D6
:102340004FF478420323CDE9002102902246502128
:102350004020FFF7FDFB3EBD7FB505460C46012141
:10236000C80200F007FCADF80850ADF804400020AA
:10237000ADF80A00ADF8060001A9594800F0A4FF25
:1023800001221146564801F016FB19208DF8000075
:1023900002208DF8010003208DF8020001208DF845
:1023A0000300684600F053FE01214D4801F0E8FAB1
:1023B0007FBD2DE9F0410121494801F0AAFD002827
:1023C0007BD00121464801F0B5FD46480088401CFD
:1023D000444908800846008807286EDB4248008888
:1023E00001F0D3FE04464FF06632404B01F0E0FEB0
:1023F000334A03C23E48008801F0C7FE04464FF04E
:1024000066323A4B01F0D4FE2E4A03C239480088A6
:1024100001F0BBFE04464FF06632344B01F0C8FEBB
:10242000294A03C23448008801F0AFFE04464FF049
:1024300066322E4B01F0BCFE244A03C2234903C975
:1024400001F042FE0446204903C901F03DFE054665
:102450001C4903C901F038FE0646194903C901F0B9
:1024600033FE074623462A463146FEF71FFC1B482B
:10247000006802F009F804461748006802F004F802
:1024800005461448006801F0FFFF06461048006842
:1024900001F0FAFF074623462A463146FEF7CEFBF7
:1024A0000020114908801249088012490880124909
:1024B00008800C490880FFF7B5FEBDE8F0810000F8
:1024C00018000020200000202800002030000020FC
:1024D0005000002084000020B8000020EC00002004
:1024E000002C0140260100203800002066661140C3
:1024F0003A0000203C0000203E00002009488047B0
:1025000009480047FEE7FEE7FEE7FEE7FEE7FEE7D5
:10251000FEE7FEE7FEE7FEE704480549054A064BED
:10252000704700009B040008310100086802002089
:1025300068080020680400206804002010B50446E4
:10254000CC48844208D10121042000F02DFB002159
:10255000042000F029FB46E0C748844208D101214D
:10256000082000F021FB0021082000F01DFB3AE0CC
:10257000C248844208D10121102000F015FB00213F
:10258000102000F011FB2EE0BD48844208D101214B
:10259000202000F009FB0021202000F005FB22E0B4
:1025A000B848844208D10121402000F0FDFA002102
:1025B000402000F0F9FA16E0B348844208D1012126
:1025C000802000F0F1FA0021802000F0EDFA0AE00E
:1025D000AE48844207D10121801500F0E5FA0021C0
:1025E000A01500F0E1FA10BD10B50121084600F079
:1025F000DBFA0021012000F0D7FA10BD2DE9F041EF
:10260000024600250026002000230024002791F820
:1026100003C00CF00F0591F803C00CF0100CBCF1D6
:10262000000F03D091F802C04CEA050591F800C0F4
:10263000BCF1000F31D0146800202BE04FF0010CEA
:102640000CFA00F3B1F800C00CEA03069E4220D158
:1026500083004FF00F0C0CFA03F7BC4305FA03FCA0
:102660004CEA040491F803C0BCF1280F06D14FF0E6
:10267000010C0CFA00FCC2F814C00AE091F803C087
:10268000BCF1480F05D14FF0010C0CFA00FCC2F868
:1026900010C0401C0828D1D31460B1F800C0BCF1B0
:1026A000FF0F34DD546800202EE000F1080C4FF0DD
:1026B000010808FA0CF3B1F800C00CEA03069E42C8
:1026C00021D183004FF00F0C0CFA03F7BC4305FA3D
:1026D00003FC4CEA040491F803C0BCF1280F05D1B7
:1026E00000F1080C08FA0CF8C2F8148091F803C045
:1026F000BCF1480F07D100F1080C4FF0010808FAAF
:102700000CF8C2F81080401C0828CED35460BDE8F5
:10271000F0814FF6FF710180022181700421C170A8
:1027200070470246002093680B400BB1012000E087
:10273000002070470146886880B27047024600203A
:10274000D3680B400BB1012000E000207047014628
:10275000C86880B2704701617047416170470AB133
:10276000016100E041617047C16070474FF4803201
:102770000A4382618161826182698269704702468F
:102780000020434B18684FF68073184040EA02104F
:1027900008433F4B186070473E49C8617047F0B529
:1027A0000A46002300240021002500F00046B6F16F
:1027B000004F02D1364EF16901E0354E7168C0F329
:1027C000034583B200F44016B6F5401F08D121F04E
:1027D00070612F4E766826F070662D4F7E6012E095
:1027E00000F48016B6F5801F06D1032606FA05F41C
:1027F000A14341F0706106E0460D360103FA06F68A
:10280000B14341F0706122B1460D360103FA06F67C
:10281000314300F00046B6F1004F02D11C4EF16189
:1028200001E01B4E7160F0BD30B500228B071C0F1C
:102830000F2303FA04F2164B08338C1053F824309C
:102840009343134C08348D1044F8253023468C10E4
:1028500053F824308C07240F00FA04F423430C4C63
:1028600008348D1044F8253030BD0A49DC31086049
:102870007047000000080140000C014000100140BA
:102880000014014000180140001C014000200140DC
:102890000000014000002042DF48006840F00100D5
:1028A000DD49086008464068DC490840DA4948606C
:1028B00008460068DA490840D749086008460068B9
:1028C00020F4802008600846406820F4FE0048603C
:1028D0004FF41F0088607047CF49096821F48031A8
:1028E000CD4A11601146096821F480211160B0F5CC
:1028F000803F03D0B0F5802F0ED106E0C6490968AD
:1029000041F48031C44A116007E0C349096841F4C9
:10291000A021C14A116000E000BF00BF704710B5A0
:1029200001460022002300204A11012A02D1BA4C9C
:10293000236806E0022A02D1B74C236A01E0B64CB4
:10294000636A01F01F02012494401C400CB1012075
:1029500000E0002010BD38B50020009000240025C4
:1029600000BF3120FFF7DBFF05460098401C0090B8
:102970000098B0F5A06F01D0002DF2D03120FFF704
:10298000CEFF08B1012400E00024204638BD0146F6
:102990000020A14A106820F0F80040EAC100106051
:1029A0007047A04908607047024600209A4B58685B
:1029B00020F47C1042EA01031843974B586070479B
:1029C00098490866704701460020934A506820F0F5
:1029D00003000843506070478F48406800F00C00C7
:1029E0007047014600208C4A506820F0F0000843F0
:1029F0005060704701460020874A506820F4E0602C
:102A000008435060704701460020834A506820F414
:102A1000605040EAC1005060704729B17E4A527A46
:102A200002437D4B5A7204E07B4A527A82437A4BCE
:102A30005A7270477B49D8310860704701460020C0
:102A4000754A506820F440400843506070470021A8
:102A5000714A20321170704A82F82010012802D089
:102A600004280AD104E001216B4A2032117005E0EC
:102A70000521694A2032117000E000BF00BF704795
:102A80006949086070476449096A0143624A1162F2
:102A90007047654944390860704730B5002100220D
:102AA000002400235C4D6D6805F00C0121B1042960
:102AB00005D0082923D105E05C4D056022E05B4D7F
:102AC00005601FE0544D6D6805F47012524D6D683D
:102AD00005F48034022505EB92421CB9544D554350
:102AE00005600BE04C4D6D6805F400351DB1504D8F
:102AF0005543056002E04D4D5543056002E04B4DE6
:102B0000056000BF00BF444D6D6805F0F001090984
:102B1000484D6B5C0568DD4045603F4D6D6805F4D0
:102B2000E061090A434D6B5C4568DD4085603A4DC4
:102B30006D6805F46051C90A3E4D6B5C4568DD4027
:102B4000C560354D6D6805F44041890B3A4D6B5CAD
:102B5000C568B5FBF3F5056130BD29B12E4A526950
:102B600002432D4B5A6104E02B4A526982432A4B9F
:102B70005A61704729B1284A92690243264B9A61EB
:102B800004E0254A92698243234B9A61704729B138
:102B9000214AD2690243204BDA6104E01E4AD2691D
:102BA00082431D4BDA61704729B11B4AD268024348
:102BB000194BDA6004E0184AD2688243164BDA6097
:102BC000704729B1144A12690243134B1A6104E099
:102BD000114A12698243104B1A61704712494039F9
:102BE000086070470F49C86470470B49C871704747
:102BF0000948406A40F080700749486270470146C2
:102C00000020054A92680A400AB1012000E0002035
:102C10007047014988727047001002400000FFF8B9
:102C2000FFFFF6FE000042428004424200127A009A
:102C300000093D00280100203801002010B504469D
:102C4000FB48844209D101218803FFF7ADFF002131
:102C50004FF48040FFF7A8FF32E0F648844209D1E4
:102C600001214804FFF7ADFF00214FF40030FFF7CA
:102C7000A8FF25E0F048844209D101218804FFF72C
:102C8000A0FF00214FF48020FFF79BFF18E0EB48E6
:102C9000844209D10121C804FFF793FF00214FF4BA
:102CA0000020FFF78EFF0BE0E548844208D10121A8
:102CB0000805FFF786FF00214FF48010FFF781FF22
:102CC00010BD2DE9F04786B005460E460024A24609
:102CD00000BFA1460027B08900B100BF2F462C8A53
:102CE0004CF6FF700440F08804432C82AC894EF609
:102CF000F3100440B08831890843718908430443C4
:102D0000AC81AC8A4FF6FF400440B0890443AC82EA
:102D100001A8FFF7C2FEC648874202D1DDF810A025
:102D200001E0DDF80CA0A88900F4004040B10AEBF6
:102D3000CA0000EB0A1031684900B0FBF1F807E067
:102D40000AEBCA0000EB0A1031688900B0FBF1F809
:102D50006420B8FBF0F004012009642101FB108914
:102D6000A88900F4004040B1322000EBC900B0FB5C
:102D7000F1F000F00700044308E0322000EB0910F6
:102D80006421B0FBF1F000F00F0004432C8106B089
:102D9000BDE8F0874FF41651016000218180C180A9
:102DA00001810C21418100218181704710B50246CB
:102DB0000020108A4FF2FF0318400B884C882343F1
:102DC0008C882343CC8823431843108210BD0021F4
:102DD000018041808180C180704721B1828942F4A5
:102DE0000052828104E082894DF6FF731A4082818D
:102DF0007047F0B50346002400260025002040F669
:102E00006A17B94200D100BF1846C1F3421401F05D
:102E10001F06012707FA06F5012C01D10C3004E04A
:102E2000022C01D1103000E014301AB107682F4392
:102E3000076002E00768AF430760F0BD1AB1838AFC
:102E40000B43838202E0838A8B4383827047028A2A
:102E50004FF6F0731A400282028A0A4302827047D8
:102E600082894FF2FF731A40828182890A438281EC
:102E7000704721B1828942F00202828104E0828996
:102E80004FF6FD731A4082817047028A4FF6DF7356
:102E90001A400282028A0A430282704721B1028AE2
:102EA00042F48042028204E0028A4BF6FF731A4029
:102EB00002827047C1F30802828070470146888809
:102EC000C0F308007047818941F00101818170479A
:102ED000028BD2B20283028B42EA01220283704744
:102EE000028B02F47F420283028B0A430283704703
:102EF00021B1828A42F02002828204E0828A4FF667
:102F0000DF731A408282704721B1828A42F0100238
:102F1000828204E0828A4FF6EF731A408282704701
:102F200021B1828A42F00802828204E0828A4FF64E
:102F3000F7731A408282704721B1828942F40042BD
:102F4000828103E08289C2F30E028281704721B13F
:102F5000828A42F40062828204E0828A4FF2FF7326
:102F60001A4082827047828A4FF6FB731A4082822F
:102F7000828A0A438282704721B1828A42F0020229
:102F8000828204E0828A4FF6FD731A408282704783
:102F900002460020B1F5007F00D100BF13880B402E
:102FA0000BB1012000E00020704701F40072B2F57F
:102FB000007F00D100BFCA430280704770B502464F
:102FC000002400230025002040F66A16B14200D1FB
:102FD00000BFC1F3421501F01F03012606FA03F3F7
:102FE000012D02D19689334006E0022D02D1168AC6
:102FF000334001E0968A33400C12012606FA04F4AD
:103000001688344013B10CB1012000E0002070BDDF
:1030100010B50022002340F66A14A14200D100BF7F
:103020000A1201249440A3B2DC43048010BD0000C6
:10303000003801400044004000480040004C00407F
:103040000050004031490143314A1160704770B56A
:10305000002100230F22C47804B32D4C246804F40B
:10306000E064C4F5E064210AC1F10403CA40447875
:1030700004FA03F18478144021430901254C0678B1
:10308000A155047804F01F050124AC4005786D11AA
:10309000AD0005F1E025C5F8004109E0047804F031
:1030A0001F050124AC401C4D0678761145F82640DA
:1030B00070BD1A4A0A400243154B1B1F1A60704725
:1030C00039B1134A121D12680243114B1B1D1A60BD
:1030D00006E00F4A121D126882430D4B1B1D1A6039
:1030E0007047042808D14FF0E021096941F004013C
:1030F0004FF0E022116107E04FF0E021096921F073
:1031000004014FF0E0221161704700000000FA0551
:103110000CED00E000E400E080E100E080FFFF1F34
:1031200010B50446FE48844208D10121C014FFF7BF
:103130003BFD0021E014FFF737FDC4E0B4F1804F00
:1031400008D101210846FFF73CFD00210120FFF7CF
:1031500038FDB8E0F348844208D101210220FFF78E
:1031600030FD00210220FFF72CFDACE0EE48844248
:1031700008D101210420FFF724FD00210420FFF7DE
:1031800020FDA0E0E948844208D101210820FFF792
:1031900018FD00210820FFF714FD94E0E448844264
:1031A00008D101211020FFF70CFD00211020FFF7AE
:1031B00008FD88E0DF48844208D101212020FFF784
:1031C00000FD00212020FFF7FCFC7CE0DA4884426F
:1031D00008D101214014FFF7E7FC00216014FFF73C
:1031E000E3FC70E0D548844209D10121C804FFF70F
:1031F000DBFC00214FF40020FFF7D6FC63E0D04851
:10320000844209D101210805FFF7CEFC00214FF4CB
:103210008010FFF7C9FC56E0CA48844209D1012159
:103220004805FFF7C1FC00214FF40010FFF7BCFC7C
:1032300049E0C548844208D101214020FFF7C1FC84
:1032400000214020FFF7BDFC3DE0C048844208D18A
:1032500001218020FFF7B5FC00218020FFF7B1FCA1
:1032600031E0BB48844208D101218015FFF7A9FC59
:103270000021A015FFF7A5FC25E0B648844209D13E
:1032800001210804FFF790FC00214FF48030FFF784
:103290008BFC18E0B048844209D101214804FFF7B3
:1032A00083FC00214FF40030FFF77EFC0BE0AB48BD
:1032B000844208D101218804FFF776FC00214FF4F5
:1032C0008020FFF771FC10BD00220288944B9842C9
:1032D0000ED0994B98420BD0B0F1804F08D0914B53
:1032E000984205D0904B984202D0904B984204D11E
:1032F0004FF68F731A404B881A438D4B984207D074
:103300008C4B984204D04FF6FF431A40CB881A43A7
:1033100002808B8883850B880385814B98420BD074
:10332000854B984208D08B4B984205D08A4B9842E7
:1033300002D08A4B984201D10B7A03860123838203
:10334000704770B5002400220023058C4FF6FE76EE
:1033500035400584028C8388048B4FF68F752C4092
:10336000B51E2C400D882C43751E2A400D892A431A
:103370004D882A436A4DA8420BD06F4DA84208D011
:10338000744DA84205D0744DA84202D0734DA84296
:1033900013D14FF6F7752A404D892A434FF6FB7536
:1033A0002A408D882A434FF6FF652B404FF6FF5584
:1033B0002B408D892B43CD892B4383800483CD887B
:1033C0008586028470BD70B5002400220023058C20
:1033D0004FF6EF7635400584028C8388048B48F6DF
:1033E000FF752C404FF6FF452C400D884FF6FF76B9
:1033F00006EA05252C434FF6DF752A400D8906EABB
:1034000005152A434D8806EA05152A43444DA8426E
:1034100002D0494DA8421DD14FF67F752A404D89F3
:103420004FF6FF7606EA05152A434FF6BF752A4088
:103430008D8806EA05152A434FF6FF352B404FF2DB
:10344000FF752B408D8906EA85052B43CD8906EA59
:1034500085052B4383800483CD880587028470BD56
:1034600070B5002400220023058C4FF6FF6635401E
:103470000584028C8388848B4FF68F752C404FF621
:10348000FC752C400D882C434FF6FF552A400D89C2
:103490004FF6FF7606EA05252A434D8806EA0525FC
:1034A0002A431F4DA84202D0234DA8421DD14FF2FE
:1034B000FF752A404D894FF6FF7606EA05252A4317
:1034C0004FF6FF352A408D8806EA05252A434EF639
:1034D000FF752B404DF6FF752B408D8906EA0515CB
:1034E0002B43CD8906EA05152B4383808483CD8841
:1034F0008587028470BD70B5002200230024058CEE
:103500004EF6FF7635400584038C8488828B48F61E
:10351000FF752A404FF6FF452A400D8820E0000045
:10352000002C01400004004000080040000C004056
:10353000001000400014004000340140004C0140E5
:10354000005001400054014000180040001C0040A1
:10355000002000400040014000440140004801407C
:103560004FF6FF7606EA05252A434DF6FF752B40F8
:103570000D8906EA05352B434D8806EA05352B43B0
:10358000FA4DA84202D0FA4DA84208D14BF6FF7579
:103590002C408D894FF6FF7606EA85152C438480F2
:1035A0008283CD88A0F84050038470BD828B4FF297
:1035B000FF331A408283828B4FF6FF7303EA0123A5
:1035C0001A4382837047F0B50C461546002200214D
:1035D0000026078C4EF6FF7C07EA0C070784828BD7
:1035E000018C4FF6FF7707EA043640F6FF473A4072
:1035F0004FF6FF7707EA05273A434FF6FF7707EACA
:1036000003373A43D94FB8420ED0D94FB8420BD006
:10361000B0F1804F08D0D74FB84205D0D64FB8424E
:1036200002D0D64FB84206D14DF6FF77394046F466
:103630008057394305E047F6FF57394044F4805737
:10364000394382830184F0BD828B4FF6F3731A40B5
:103650008283828B0A4382837047F0B50C461546FD
:10366000002200210026078C4FF6FF6C07EA0C07AA
:103670000784828B018C4FF6FF7707EA04264FF60A
:103680000C773A404FF6FF7707EA03172F433A4388
:10369000B64FB8420ED0B64FB8420BD0B0F1804F03
:1036A00008D0B44FB84205D0B34FB84202D0B34FA0
:1036B000B84206D14FF6FF57394046F48077394378
:1036C00005E04FF2FF57394044F480773943828355
:1036D0000184F0BD028B4FF2FF331A400283028B4C
:1036E0004FF6FF7303EA01231A4302837047F0B5D4
:1036F0000C461546002200210026078C4FF6EF7C71
:1037000007EA0C070784028B018C4FF6FF7707EA64
:10371000041640F6FF473A404FF6FF7707EA0337B3
:103720003A434FF6FF7707EA05273A438F4FB842EF
:103730000ED08F4FB8420BD0B0F1804F08D08D4FD4
:10374000B84205D08C4FB84202D08C4FB84206D157
:103750004FF6DF77394046F01007394305E04FF662
:103760005F77394044F01007394302830184F0BD8C
:10377000028B4FF6F3731A400283028B0A430283D3
:103780007047F0B50C46154600220021068C4FF616
:10379000FE773E400684028B018C4FF60C76324059
:1037A0007E1C06EA03162E433243704EB0420ED002
:1037B0006F4EB0420BD0B0F1804F08D06D4EB0428A
:1037C00005D06D4EB04202D06C4EB04206D14FF6DD
:1037D000FD76314044F00106314305E04FF6F576C1
:1037E000314044F00106314302830184F0BD70B5DD
:1037F00005460C465D4885420ED05D4885420BD09B
:10380000B5F1804F08D05B48854205D05A488542C3
:1038100002D05A48854200D100E000BF208850B94C
:103820002389A28861882846FFF7ABFFE1882846F4
:10383000FFF79EFF25E0208804280AD12389A2886B
:1038400061882846FFF753FFE1882846FFF742FFCB
:1038500017E0208808280AD12389A2886188284691
:10386000FFF7FBFEE1882846FFF7EEFE09E023891B
:10387000A28861882846FFF7A6FEE1882846FFF760
:1038800095FE70BD2DE9F04105460C460026012746
:10389000608808B9022600E00026A088012801D12E
:1038A000022700E001272088A0B92389A288618827
:1038B0002846FFF766FFE1882846FFF759FF23896E
:1038C0003A4631462846FFF712FFE1882846FFF7BF
:1038D00001FF13E02389A28861882846FFF707FFCC
:1038E000E1882846FFF7F6FE23893A463146284606
:1038F000FFF747FFE1882846FFF73AFFBDE8F08170
:103900000A884B881A438B881A43CB881A430B8941
:103910001A434B891A438B891A43A0F844207047F5
:103920004FF6FF71818000210180C18041800172CA
:1039300070470021018041808180C18001814181E7
:103940008181C181704700210180418001218180F6
:103950000021C18001817047002101804180818068
:10396000C18001814181818170470000002C0140AC
:10397000003401400004004000080040000C0040FA
:1039800021B1028842F00102028004E002884FF671
:10399000FE731A400280704731B1B0F8442042F4FF
:1039A0000042A0F8442005E0B0F84420C2F30E0223
:1039B000A0F8442070471AB183890B43838102E049
:1039C00083898B43838170478182704741EA020378
:1039D000A0F8483070471AB183890B43838102E015
:1039E00083898B438381704701894FF6F8721140B8
:1039F000018170470A46002101894FF68F731940F3
:103A000011430181704730B504460D4629462046D2
:103A1000FFF7F0FF208940F00700208130BD2DE93D
:103A2000F04104460D4616461F46602D06D13B4622
:103A3000012231462046FFF75AFE05E03B460122AF
:103A400031462046FFF79DFE29462046FFF7D2FF6C
:103A5000208940F007002081BDE8F08130B50C4698
:103A600000210189C9B24FF6FF7505EA0325154308
:103A700025432943018130BD2DE9F04105460E461D
:103A800017469846002443463A4631462846FFF7F3
:103A9000E5FF2C894FF6F870044044F007044FF618
:103AA0008F70044044F070042C81BDE8F081F0B5C3
:103AB00004460D4616461F463B46324629462046DA
:103AC000FFF7CCFF208940F480402081F0BD0185C4
:103AD000828270470A46002101884FF68F73194091
:103AE000114301807047F0B50C4615461E46002173
:103AF000002200230189028B038C4FF6F8773940AE
:103B000021434FF6FC473A4040F201173A434FF643
:103B1000DD773B404FF6FF7707EA06172F433B431D
:103B2000018102830384F0BD0A460021018B4FF618
:103B30008F7319401143018370470A460021018B9E
:103B400048F6FF7319404FF6FF7303EA0223194347
:103B5000018370470A460021818B4FF68F7319400D
:103B60001143818370470A460021818B48F6FF7319
:103B700019404FF6FF7303EA02231943818370470C
:103B800021B1028842F08002028004E002884FF6F0
:103B90007F731A400280704721B1828842F004028C
:103BA000828004E082884FF6FB731A40828070475F
:103BB00021B1828842F00802828004E082884FF6B8
:103BC000F7731A408280704721B1828842F0010267
:103BD000828004E082884FF6FE731A40828070472C
:103BE0000A460021018B4FF6F773194011430183F8
:103BF00070470A460021018B4FF2FF7319404FF6C0
:103C0000FF7303EA02231943018370470A46002128
:103C1000818B4FF6F77319401143818370470A4631
:103C20000021818B4FF2FF7319404FF6FF7303EAB7
:103C300002231943818370470A460021018B4FF606
:103C4000FB7319401143018370470A460021018B21
:103C50004FF6FF3319404FF6FF7303EA022319436F
:103C6000018370470A460021818B4FF6FB73194090
:103C70001143818370470A460021818B4FF6FF3341
:103C800019404FF6FF7303EA0223194381837047FB
:103C90000A460021018B4FF67F73194011430183BF
:103CA00070470A460021018BC1F30E014FF6FF73E6
:103CB00003EA02231943018370470A460021818BDE
:103CC0004FF67F7319401143818370470A460021E4
:103CD000818BC1F30E014FF6FF7303EA02231943F0
:103CE000818370470A460021018C4FF6FD7319400D
:103CF0001143018470470A460021018C4FF6F77387
:103D000019401143018470470A460021018C4FF687
:103D1000DF7319404FF6FF7303EA0213194301845E
:103D200070470A460021018C4FF67F7319404FF609
:103D3000FF7303EA02131943018470470A46002106
:103D4000018C4FF6FF5319404FF6FF7303EA02232D
:103D50001943018470470A460021018C4FF2FF731A
:103D600019404FF6FF7303EA022319430184704799
:103D70000A460021018C4DF6FF7319404FF6FF7380
:103D800003EA023319430184704730B5002301244C
:103D90008C40A3B2048C9C430484048C02FA01F589
:103DA000ADB22C43048430BD30B5002304248C40D4
:103DB000A3B2048C9C430484048C02FA01F5ADB2D6
:103DC0002C43048430BD70B50346002000241846FF
:103DD000183001258D40ACB21D8CA5431D8409B15E
:103DE000082909D100EB6100056825F07005056020
:103DF0000568154305600EE00D1FC5F34E05284408
:103E0000056825F4E045056005684FF6FF7606EA8B
:103E100002263543056070BD21B1028842F00202DE
:103E2000028004E002884FF6FD731A40028070475A
:103E300021B1028842F00402028004E002884FF6B9
:103E4000FB731A400280704721B1828842F08002E1
:103E5000828004E082884FF67F731A408280704728
:103E600002884FF6F7731A40028002880A430280E4
:103E7000704782884FF68F731A40828082880A4387
:103E80008280704702894FF6F8731A4002810289D6
:103E90000A430281704702894FF67F731A400281FC
:103EA00002890A4302817047818470478185704787
:103EB000818670470187704781877047A0F840105E
:103EC000704702884FF6FF431A40028002880A4377
:103ED000028070470146888E70470146088F704700
:103EE0000146888F70470146B1F84000704701468F
:103EF000888C70470146088D704702460020138A5F
:103F00000B400BB1012000E000207047CA43028241
:103F1000704730B50246002000230024158A05EAC8
:103F20000103958905EA010413B10CB1012000E0F9
:103F3000002030BDCA43028270470000002044497F
:103F40000860091D0860091D0860091D08604148D6
:103F50003F4914310860704700213D498279002AA9
:103F60003AD00A46126803689A430B461A600A1D43
:103F7000126803689A430B1D1A60027911440A689B
:103F800003681A430A60324A0832126803689A4387
:103F90002F4B08331A601A1D126803689A432C4B82
:103FA0000C331A604279102A0ED11A1F1268036866
:103FB0001A43274B08331A601A1D126803681A4304
:103FC000234B0C331A600DE02149427911440A68F1
:103FD00003681A430A6005E0027911440A6803681D
:103FE0009A430A6070470021016001710C21417100
:103FF0000021817170471649103109680143144A44
:1040000010321160704701460020114A14321268C4
:104010000A400AB1012000E0002070470C49143129
:1040200008607047014600200022094B1B6803EA24
:104030000102074B14331B680B4013B10AB1012076
:1040400000E000207047024914310860704700000A
:1040500000040140FFFF0F00704770477047704732
:104060007047754600F02CF8AE4605006946534689
:1040700020F00700854618B020B5FEF74DFABDE8E0
:1040800020404FF000064FF000074FF000084FF0BF
:10409000000B21F00701AC46ACE8C009ACE8C00950
:1040A000ACE8C009ACE8C0098D46704710B50446BD
:1040B000AFF300802046BDE81040FCF7A0B8000038
:1040C000004870470402002021F00042A2F1605233
:1040D000B2F5801F01F0004328BFD2F17F6C0BD9ED
:1040E0005FEA001C43EAC20242EB507018BF7047FF
:1040F00028BF20F001007047B2F5801FBCBF1846F2
:1041000070474FEA410C1CF5001F02D2084600F030
:10411000F2BA70B500F0F6F800000089FFF7F6BFBC
:104120004FF00040A0F58000704700004FEA4103C7
:104130004FEA5353A3F58063D3F11E03C8BFD3F1F5
:10414000210C0CDD4FF0004242EAC12242EA5052FB
:1041500032FA03FC8CEAE17CACEBE1707047102B87
:10416000C4BF0020704703F5787CBCF1FF3F04D04A
:104170006FF0004282EA2100704770B500F0C2F88B
:104180004992248000207047F2E7B0FA80F310FAD9
:1041900003F10AD0C3F11D0303F580634FEA4150D8
:1041A0004FEA035202EBD12170474FF000007047F5
:1041B000DFF848C170B51CEA111E1EBF1CEA1315BA
:1041C0009EEA0C0F95EA0C0F00F06F8081EA030461
:1041D00023EA4C134EEAD47E21EA4C1141F48011BB
:1041E00043F48013AE44A1FB024CA0FB0365AEF187
:1041F0007F7E361955EB0C05A1FB034C4CF10003F7
:10420000A0FB021C16EB0C06654153F100030942AA
:1042100018BF46F0010613F4007F0BD14FEA0331BB
:104220004FEA0530340341EA155140EA16506FF069
:1042300003020AE04FEAC3214FEAC520F40241EA33
:10424000555140EA56506FF0020202EB2E4201EB4C
:10425000025585EACE710AD05FEA440C18BF24F0FB
:10426000004450F1000041F1000120EAD47040F216
:10427000FE7C624500D270BDA84214BF4FF080445E
:104280004FF04044002E08BF0024BEF1806FA8BF4D
:10429000A1F1C041BDE8704080F282804FF0000083
:1042A00001F1C04101F0004170479EEA0C0F0CEA99
:1042B000131518BF95EA0C0F06D04FF0000081EAE5
:1042C000030E0EF0004170BD00F01CF88900013EA5
:1042D00000F007B800F009B84FEA430C5FEA5C5CF5
:1042E00008D081EA030100F05BB84FEA410C5FEAB5
:1042F0005C5CF6D14FF00000014970470000FF07F9
:104300000000F87F0EF1020E2EF0030E5EF8046B33
:10431000364205D4012A43EB030515F5001F12D8D8
:10432000012841EB010C1CF5001F0CD80ED14FEAFF
:10433000D17C15F5001F0CEB4C0C0CF1020C08BFE6
:104340004CEBD37C04E04FF0080C01E04FEAD37C47
:104350000CEB4C0526FA05F606F00706B6F1040C40
:1043600006D20EEB860CBDE870404CF0010C6047A5
:10437000DFE80CF0090B02024FF000414FF00000A3
:10438000A1F5002170BD19461046012851EB01042A
:1043900018BFD4F5001484BF002001F0004170BDA7
:1043A0000808A0F500114FEA3101704790EA010FAB
:1043B00048BF81F0004100F1E681421A3CBF801AFB
:1043C00089184FEAD0524FF07F4C1CEA410FA2EB04
:1043D000D15318BF9CEA026F00F03B804FF0004CB5
:1043E0004CEA00204CEA012121FA03FC10EB0C0CF2
:1043F0001ED202F1FF325FEA1C2040EBC25038BFF0
:1044000070471CF07F0F4FEA400C18BFBCF17F4F84
:1044100038BF7047C3F12003994008BF20F0010066
:10442000BCF17F4F38BF7047A0F1C04000F063B9C6
:104430004FEA3C00000A40EBC25028BF1CF0FF0FBF
:104440004FEA400CE6D018BFBCF17F4F38BF704731
:10445000EAE79CEA026F05D010EA5C0F08BF00F0A3
:104460000040704710B500F000F900BF64FBBE3E8D
:10447000401058BFC0F14040491058BFC1F1404101
:104480008142EFF30080704741000B0ED3F19E0292
:1044900008D950F400034FEA032323FA02F048BF7F
:1044A0004042704710B500F0E0F800BF4992248008
:1044B000002070476FF0004282EA20007047000041
:1044C000C10DD1F19E0206DB4FEA002343F0004309
:1044D00023FA02F07047004207D54FEA4001B1F1DC
:1044E000FE4F02D24FF00000704710B500F0BDF84B
:1044F00049922480002070476FEA20007047000036
:1045000050EA010C00F113801CF5000F58BFBCF5F8
:10451000000F01D48842704707D710F5000F58BF2D
:1045200011F5000F15D488427047894270471CF579
:10453000000F04D5BCF5000FF7D5814270474FF04E
:10454000807C1CEB400F38BF1CEB410F01D2814235
:10455000704710B500F089F8922449004FF00050E0
:104560004FF08051FFF784BF4FF47F0C1CEAD0124C
:104570001EBF1CEAD11392EA0C0F93EA0C0F00F055
:10458000478090EA010F48BF42F480724FF0004C20
:104590004CEA00204CEA012102EB0302A0FB0113CC
:1045A000A2F50002002918BF43F001035B0028BFF9
:1045B0004FEA330342EB22425FEA132C4CEBC2502A
:1045C0002EBFBCEB436FB2F57C0F70474FEA036C14
:1045D000BCF1004F08BF20F00100B2F57C0F38BFDE
:1045E00070470BD582F0FF0212F5803FC8BF7047BD
:1045F00000F1C040D8BF00F00040704700F5000C4B
:104600005FEA4C0C48BF7047B0F1C04000F073B88F
:1046100090EA010F0CEAD11348BF42F48072624560
:1046200038BF634504D280EA010000F000407047C3
:1046300010B500F01AF800BF8900013E00F007B87D
:1046400000F009B85FEA410C5FEA1C6C08D080EA10
:10465000010000F050B85FEA400C5FEA1C6CF6D134
:104660004FF00040A0F5800070470EF1020E2EF0D2
:10467000030E5EF8044B244204D44FEA4102B2F127
:104680007F4F11D84FEA4003B3F17F4F0CD80ED1C2
:104690004FEAD07CB2F17F4F0CEB4C0C0CF1020CCA
:1046A00008BF4CEBD17C04E04FF0080C01E04FEA6E
:1046B000D17C0CEB4C0324FA03F404F00704B4F1AE
:1046C000040C06D20EEB840CBDE810404CF0010C3B
:1046D0006047DFE80CF0070802024FF00040A0F549
:1046E000800010BD0846420018BFD2F1807288BF1A
:1046F00000F0004010BDFF2141EAD050C0057047D6
:1047000051EA000C00F113801CF5000F58BFBCF5F6
:10471000000F01D48142704707D711F5000F58BF31
:1047200010F5000F15D481427047894270471CF57F
:10473000000F04D5BCF5000FF7D5884270474FF045
:10474000807C1CEB410F38BF1CEB400F01D288422C
:10475000704780EA010081EA000180EA0100FFF76A
:10476000F8BE80F0004090EA010F7FF526AE81F0A0
:10477000004100F008B8000090EA010F48BF81F046
:1047800000413FF51AAE421A04D882F00042A0EB75
:10479000020011444FEAD0524FF07F4C1CEA410F07
:1047A000A2EBD15318BF9CEA026F4AD04FF0004CE5
:1047B0004CEA00204CEA012121FA03FCB0EB0C0C7E
:1047C0000FD412F0FE0F36D05FEA4C001DD5001258
:1047D00040EBC25038BF70471CF03F0F18BF704706
:1047E0000BE0A2F101025FEA1C2040EBC25038BF8F
:1047F00070471CF07F0F18BF7047C3F1200399402A
:1048000014BF401E20F00100704780084FEA1223B9
:1048100008BF7047B0FA80FCA2EB0C02CCF1280C68
:1048200060FA0CF093EA122F04BF00EBC2507047FD
:104830004FEAC3707047130A5FEADC1008BF704785
:10484000F6E79CEA026F04D010EA5C0F08BF002074
:10485000704710B5FFF709FF40DFF63E81F00040DA
:104860007047000000000000000000000000000091
:104870000404040404000004000014140A000000EE
:1048800000000000000000000A0A1F0A0A1F0A0AAE
:10489000000000040E1505060C14150E040000009F
:1048A00012150D152E2C2A1200000000040A0A36DB
:1048B000151529160000020201000000000000008A
:1048C000000010080804040404040808100002048E
:1048D0000408080808080404020000000004150E7B
:1048E0000E150400000000000008083E0808000043
:1048F00000000000000000000000020201000000B3
:104900000000003F00000000000000000000000068
:104910000000000200000020101008080404020239
:10492000010000000E1111111111110E0000000004
:10493000040604040404040E000000000E11110813
:104940000402011F000000000E11100C1010110EC7
:1049500000000000080C0C0A091F081C00000000E1
:104960001F01010F1110110E000000000C12010DAB
:104970001311110E000000001E10080804040404A6
:10498000000000000E11110E1111110E00000000A8
:104990000E11111916100906000000000000040095
:1049A00000000004000000000000000400000004FB
:1049B00004000000100804020204081000000000B7
:1049C00000003F003F00000000000000020408104B
:1049D00010080402000000000E1111080404000475
:1049E000000000001C22292D2D1D221C00000000AB
:1049F00004040C0A0A1E1233000000000F12120EEB
:104A00001212120F000000001E1101010101110E0F
:104A1000000000000F1212121212120F000000000C
:104A20001F120A0E0A02121F000000001F120A0EB7
:104A30000A020207000000001C1201013911120CC9
:104A4000000000003312121E121212330000000088
:104A50001F0404040404041F000000003E080808AA
:104A6000080808080907000037120A060A12123758
:104A700000000000070202020202223F00000000C4
:104A80003B1B1B1B15151535000000003B121616AD
:104A90001A1A1217000000000E1111111111110E37
:104AA000000000000F12120E0202020700000000B8
:104AB0000E1111111117190E180000000F12120E0D
:104AC0000A121237000000001E1101060810110F13
:104AD000000000001F1504040404040E0000000080
:104AE000331212121212120C000000003312120ABA
:104AF0000A0C040400000000151515150E0A0A0A18
:104B0000000000001B0A0A04040A0A1B000000003F
:104B10001B0A0A0A0404040E000000001F0908040E
:104B20000402121F00001C0404040404040404040E
:104B30001C000002020404040808081010000E08FB
:104B400008080808080808080E00040A0000000009
:104B50000000000000000000000000000000000055
:104B6000003F020400000000000000000000000000
:104B70000000000C121C123C000000030202020E96
:104B80001212120E000000000000001C1202120C93
:104B9000000000181010101C1212123C000000003F
:104BA0000000000C121E021C000000182404041E49
:104BB0000404041E000000000000003C120C021C53
:104BC000221C00030202020E12121237000000041F
:104BD000040000060404040E000000080800000C95
:104BE00008080808080700030202021A0A060A1346
:104BF00000000007040404040404041F0000000073
:104C00000000000F15151515000000000000000F32
:104C100012121237000000000000000C1212120CD9
:104C2000000000000000000F1212120E0207000028
:104C30000000001C1212121C103800000000001BA3
:104C400006020207000000000000001E020C101EF9
:104C5000000000000004041E0404041C0000000006
:104C60000000001B1212123C000000000000001B9C
:104C70000A0A04040000000000000015150E0A0ACC
:104C8000000000000000001B0A040A1B00000000D6
:104C90000000003312120C08040300000000001E84
:104CA0000804041E000018080808080C0808080872
:104CB0001800080808080808080808080808060472
:104CC000040404080404040406001609000000009B
:104CD00000000000000000000000000000000000D4
:104CE000000000000000000000080808080808088C
:104CF00000001818000000486C241200000000009A
:104D00000000000000000000002424247F12121282
:104D10007F12121200000000081C2A2A0A0C182810
:104D2000282A2A1C080800000022251515152A58D3
:104D30005454542200000000000C1212120A76256E
:104D40002911916E00000006060403000000000017
:104D500000000000000000402010100808080808AB
:104D60000810102040000002040808101010101055
:104D70001008080402000000000008086B1C1C6BEF
:104D800008080000000000000000080808087F086C
:104D900008080800000000000000000000000000FB
:104DA0000000060604030000000000000000FE00F2
:104DB00000000000000000000000000000000000F3
:104DC000000006060000000080404020201010086F
:104DD0000804040202000000001824424242424239
:104DE000424224180000000000080E0808080808C5
:104DF0000808083E00000000003C4242422020100B
:104E00000804427E00000000003C4242201820407E
:104E10004042221C000000000020302824242222CE
:104E20007E20207800000000007E0202021A264048
:104E30004042221C0000000000382402021A2642D0
:104E40004242241800000000007E222210100808B0
:104E50000808080800000000003C424242241824D0
:104E60004242423C00000000001824424242645882
:104E70004040241C00000000000000001818000042
:104E800000001818000000000000000000080000EA
:104E9000000000080804000000402010080402047C
:104EA0000810204000000000000000007F0000000B
:104EB0007F000000000000000002040810204020D5
:104EC0001008040200000000003C4242464020104E
:104ED0001000181800000000001C225A55555555A6
:104EE0002D42221C00000000000808181414243C65
:104EF000224242E700000000001F2222221E22421E
:104F00004242221F00000000007C424201010101D8
:104F10000142221C00000000001F22424242424285
:104F20004242221F00000000003F4212121E1212D5
:104F30000242423F00000000003F4212121E1212C5
:104F40000202020700000000003C22220101017160
:104F50002122221C0000000000E7424242427E4221
:104F6000424242E700000000003E08080808080826
:104F70000808083E00000000007C101010101010FF
:104F800010101010110F0000007722120A0E0A12E2
:104F90001222227700000000000702020202020231
:104FA0000202427F000000000077363636362A2A99
:104FB0002A2A2A6B0000000000E346464A4A525261
:104FC0005262624700000000001C22414141414101
:104FD0004141221C00000000003F424242423E028A
:104FE0000202020700000000001C22414141414131
:104FF0004D53321C60000000003F4242423E1212FC
:10500000222242C700000000007C42420204182015
:105010004042423E00000000007F4908080808089E
:105020000808081C0000000000E7424242424242D9
:105030004242423C0000000000E742422224241485
:105040001418080800000000006B494949495555EB
:10505000362222220000000000E7422424181818FB
:10506000242442E7000000000077222214140808DC
:105070000808081C00000000007E21201010080411
:105080000442423F000000780808080808080808A1
:105090000808080878000000020204040808081044
:1050A000102020204040001E101010101010101072
:1050B000101010101E000038440000000000000016
:1050C00000000000000000000000000000000000E0
:1050D0000000000000FF00060800000000000000C3
:1050E000000000000000000000000000003C4278CA
:1050F000444242FC0000000000030202021A264261
:105100004242261A0000000000000000003844025D
:1051100002024438000000000060404040784442F1
:10512000424264D80000000000000000003C427EC3
:105130000202423C0000000000F08808087E0808D7
:105140000808083E0000000000000000007C222249
:105150001C023C42423C000000030202023A46426A
:10516000424242E700000000000C0C00000E08085C
:105170000808083E00000000003030000038202001
:1051800020202020221E0000000302020272120AC8
:105190001612227700000000000E08080808080810
:1051A0000808083E0000000000000000007F929206
:1051B000929292B70000000000000000003B4642BF
:1051C000424242E70000000000000000003C424272
:1051D0004242423C0000000000000000001B26424A
:1051E0004242221E020700000000000000784442F4
:1051F0004242447840E000000000000000774C0488
:105200000404041F0000000000000000007C4202B3
:105210003C40423E0000000000000008083E080834
:10522000080808300000000000000000006342424F
:10523000424262DC000000000000000000E742245F
:1052400024140808000000000000000000EB494999
:1052500055552222000000000000000000762418AE
:105260001818246E000000000000000000E742242F
:10527000241418080807000000000000007E221017
:105280000808447E000000C020202020201020209C
:1052900020202020C000101010101010101010102E
:1052A0001010101010100006080808080810080850
:1052B0000808080806000C32C200000000000000C8
:1052C00000000000000000000000000000000000DE
:1052D00000000000000000000000000000000000CE
:1052E00000000000000000000000000000000000BE
:1052F000000000000000000000000000000060004E
:1053000060006000600060006000600040002000FD
:10531000200020000000000000006000600060002D
:10532000000000000000000000006006600630037E
:105330009801880044000000000000000000000008
:10534000000000000000000000000000000000005D
:10535000000000000000000000000000000010023B
:10536000100210021002FE07FE07080208010801E1
:1053700008010801FE07FE070401040104010401FD
:10538000000000000000000000000000400040009D
:10539000F00158034C03CC034C0058007000E000AF
:1053A000C001C00140034C035C034C034801F00002
:1053B00040004000000000000000000000000E015E
:1053C0000A01910091009100510051003A00AE0392
:1053D000A002500450044804480448048402840392
:1053E0000000000000000000000000000000380085
:1053F0006C006C006C006C006C002C0098071C01A9
:105400001A01330133016301E300C308C6093C07F5
:10541000000000000000000000000C001C00100054
:105420001000080004000000000000000000000060
:10543000000000000000000000000000000000006C
:105440000000000000000000000000040002000155
:10545000800080004000400020002000200020004C
:10546000200020002000400040008000800000015B
:105470000002000400000000000002000400080018
:1054800010001000200020004000400040004000BC
:1054900040004000400020002000100010000800E4
:1054A00004000200000000000000000000000000F6
:1054B00000004000C0004000460C4E0FD001F0013B
:1054C0005E0F460C4000400040000000000000005D
:1054D00000000000000000000000000000000000CC
:1054E0000000000040004000400040004000FE0F6F
:1054F000400040004000400040000000000000006C
:10550000000000000000000000000000000000009B
:10551000000000000000000000000000000000008B
:10552000000000000000000000000C001C00100043
:10553000100008000400000000000000000000004F
:105540000000000000000000000000000000FE0756
:10555000000000000000000000000000000000004B
:10556000000000000000000000000000000000003B
:10557000000000000000000000000000000000002B
:10558000000000000000000000001C001C001C00C7
:1055900000000000000000000000000400060002FF
:1055A0000003000100018000800040004000600016
:1055B0002000200010001000080008000C0004006B
:1055C00006000200000000000000000000000000D3
:1055D000F00098010C030C030606060606060606F4
:1055E00006060606060606060C030C039801F000E4
:1055F00000000000000000000000000000000000AB
:1056000040007C006000600060006000600060009E
:105610006000600060006000600060006000FC03EB
:10562000000000000000000000000000000000007A
:10563000F800840102030603060300030001800151
:10564000C000600020001000080204020602FE03F1
:10565000000000000000000000000000000000004A
:105660007800C6008601860180018001C0007000BC
:105670008001000100030003060306038601F80011
:10568000000000000000000000000000000000001A
:1056900080018001C001A001A00190018801880162
:1056A00084018201FE0F8001800180018001E007FA
:1056B00000000000000000000000000000000000EA
:1056C000FC0304000400040004000400F4008C0146
:1056D0000403000300030603060382018401F800AB
:1056E00000000000000000000000000000000000BA
:1056F000E00118030C030C0004000600E601160389
:105700000E0606060606060604060C021803F0003E
:105710000000000000000000000000000000000089
:10572000F8070C060402040100010001800080005B
:1057300040004000400060006000600060006000C9
:105740000000000000000000000000000000000059
:10575000F8010C030606060606060C021C03F00000
:10576000C8010C0306060606060606060C03F00131
:105770000000000000000000000000000000000029
:10578000F0000C010C0306020606060606060607D4
:105790008C0678060006000300030C018C017800DB
:1057A00000000000000000000000000000000000F9
:1057B00000000000000000000000E000E000E00049
:1057C00000000000000000000000E000E000E00039
:1057D00000000000000000000000000000000000C9
:1057E00000000000000000000000600060000000F9
:1057F00000000000000000000000000060006000E9
:105800004000200020000000000000000000000414
:105810000002000180004000200010000800040089
:105820000800100020004000800000010002000479
:105830000000000000000000000000000000000068
:1058400000000000000000000000FE070000000053
:105850000000FE0700000000000000000000000043
:105860000000000000000000000000000000040034
:105870000800100020004000800000010002000429
:105880000002000180004000200010000800040019
:105890000000000000000000000000000000000008
:1058A000E0031806040C040C0C0C0C0C000780011F
:1058B00040004000400000000000E000E000E00088
:1058C0000000000000000000000000000000E000F8
:1058D00018030C02CC0564056605A605B604B604DB
:1058E000B604B604B602E4010C040C021803F0007E
:1058F00000000000000000000000000000000000A8
:10590000600060005000D000900090008800880186
:105910000801F801040304030402020202060F0F47
:105920000000000000000000000000000000000077
:10593000FE008C030C030C030C030C038C01FC0015
:105940000C030C020C060C060C060C060C03FE01E4
:105950000000000000000000000000000000000047
:10596000E00318030C060C040404060006000600FD
:1059700006000600060006040C040C021803F000E2
:105980000000000000000000000000000000000017
:105990007F008C010C030C030C060C060C060C0695
:1059A0000C060C060C060C060C030C038C017F0085
:1059B00000000000000000000000000000000000E7
:1059C000FF03060306040604060086008600FE00A8
:1059D0008600860086000600060406040602FF0311
:1059E00000000000000000000000000000000000B7
:1059F000FF03060306040604060086008600FE0078
:105A000086008600860006000600060006001F00CD
:105A10000000000000000000000000000000000086
:105A2000F00018010C020C02040206000600060039
:105A30000600C60F060306030C030C031803F00050
:105A40000000000000000000000000000000000056
:105A50000F0F060606060606060606060606FE07DB
:105A600006060606060606060606060606060F0FC4
:105A70000000000000000000000000000000000026
:105A8000FC03600060006000600060006000600077
:105A90006000600060006000600060006000FC0367
:105AA00000000000000000000000000000000000F6
:105AB000F807C000C000C000C000C000C000C000A7
:105AC000C000C000C000C000C000C000C000C000D6
:105AD000C60066003C00000000000000000000005E
